:1000000044C000005FC000005DC000005BC0000095
:1000100059C0000057C0000055C0000053C0000088
:1000200051C000004FC000004DC000009DC700003F
:10003000CFC7000065C700002EC7000043C0000006
:1000400041C000003FC000000C9429080C946A08CD
:1000500039C0000037C0000035C0000033C00000C8
:1000600031C000002FC0000045464765666700208C
:100070002B2D2E3031323334353637383968006322
:1000800064696E6F70737578580011241FBECFEFCE
:10009000D8E0DEBFCDBF11E0A0E0B1E0E4E1FAE1DD
:1000A00002C005900D92A434B107D9F722E0A4E470
:1000B000B1E001C01D92A33EB207E1F70E94DD0846
:1000C0000C94080D9DCFFFCF22D15CD07AD3B0D352
:1000D00040E860E171E082E592E030D2FC0190936B
:1000E00047028093460291E095879093720278943C
:1000F00085E091E0A6C20F931F93CF93DF93809189
:100100004E0290914F02019690934F0280934E02BF
:10011000A0914802B091490282E0A834B80769F181
:1001200014968D919C911597019715969C938E939B
:100130001497892B11F508E412E01696ED91FC91C5
:10014000179717961C921E921697CD91DC911197D6
:100150001B830A83D0934902C093480218968D915D
:100160009C9119970995A0914802B0914902149663
:100170008D919C911597892B01F3DF91CF911F9160
:100180000F910895EBE3F2E088E492E0968785878B
:10019000908B87878FEF9FEF928B818B148A138AC6
:1001A0000895CF93DF93DC0119963C932E93189713
:1001B00017965C934E931697E0914802F09149028E
:1001C000248135812617370750F4621B730B019089
:1001D000F081E02D2481358126173707B0F3119681
:1001E000FC93EE93C281D3811396DC93CE93129746
:1001F000B983A883B383A28315967C936E931497D7
:1002000084819581861B970B958384838FEF9FEF65
:1002100090934D0280934C02DF91CF910895CF933C
:10022000DF93FC01A081B18114962D913C9115972B
:1002300084819581820F931F15969C938E931497BA
:10024000C281D381B983A883A081B1811396DC9345
:10025000CE931297178216828FEF9FEF90934D02E5
:1002600080934C02DF91CF910895CF93DF93DC010F
:100270001D968C911D97843099F170F5882349F172
:10028000833031F45096ED91FC9151971182108298
:100290008FEF9FEF51969C938E9350971D961C92D3
:1002A0001D9714962C911497EBE3F2E00190F081E6
:1002B000E02D94819217D0F71196FC93EE93C281B2
:1002C000D3811396DC93CE931297B983A883B3831B
:1002D000A283DF91CF910895853089F08730C1F6F0
:1002E0001296ED91FC9113978D919C9111979183AA
:1002F0008083CD91DC911197FB83EA83C9CF50961F
:10030000ED91FC91519784818F5F8483E9CFEBE37A
:10031000F2E0F183E083F383E2831482F087E783E2
:10032000F287E1870895CF93DF93DC011D961C923D
:100330001D9714962C911497EBE3F2E00190F08155
:10034000E02D94819217D0F71196FC93EE93C28121
:10035000D3811396DC93CE931297B983A883B3838A
:10036000A283CD01DF91CF910895CF93DF93EBE38B
:10037000F2E063857485DB011D968C938081918109
:10038000EC01A881B981B183A0831396FC93EE930D
:1003900012979487838721E02D8757D2DF91CF91E1
:1003A00008951F93CF93DF93CDB7DEB72A970FB68B
:1003B000F894DEBF0FBECDBF182F6F3F8FEF7807C9
:1003C00011F1209146023091470245E351E0CE0100
:1003D0000196E7DE812FC9DF8F819885892B19F07F
:1003E000CE0101961CDFE0914602F0914702808920
:1003F00091892A960FB6F894DEBF0FBECDBFDF916C
:10040000CF911F910895812FB0DFEDCFCF93DF9370
:10041000DC01C0914602D091470251967C936E93C5
:10042000509714962C9114978C818217D8F01D96B2
:100430001C921D97EBE3F2E00190F081E02D948196
:100440009217D0F71196FC93EE93C281D381139645
:10045000DC93CE931297B983A883B383A283DF91F1
:10046000CF9108951D86EBE3F2E00190F081E02D3D
:1004700094819817D0F7CD01F983E883A281B381E5
:10048000BB83AA83CD93DC93D383C283909347022B
:100490008093460221E0FC012587BE01D6D1DF9181
:1004A000CF910895A0913B02B0913C02E0914602A9
:1004B000F091470281E014962C919481921708F0F4
:1004C00080E00895CF93DF93A0914602B091470258
:1004D00040913B0250913C02EA01E881F981F0939E
:1004E0003C02E0933B028BE392E093838283509340
:1004F00047024093460281E08D871D961C921D970E
:1005000014962C91149703C00190F081E02D9481F2
:100510002917D0F31196FC93EE9382819381139661
:100520009C938E931297EC01B983A883B383A28323
:10053000BD01CA018AD1DF91CF910895CF93DF9396
:10054000FC01448382E085871686438F128E118ECC
:10055000108E81E0878774876387ABE3B2E0B08752
:10056000A7831996CD91DC911A97D287C187F88716
:10057000EF831A96FC93EE931997CF014296938BD3
:10058000828B0296958B848B978B868BCF01DF9124
:10059000CF910895CF93DF93EC014C815D81FA01F7
:1005A0007C97CA01C197968385832F81DC0152967F
:1005B0002C935297288551962C93519729855096C4
:1005C0002C9350972A851F962C931F9724E534E08F
:1005D00053963C93539754962C938E81288139815E
:1005E000848392E095871686838F128E118E108EEB
:1005F00081E0878734872387CBE3D2E0D087C78326
:1006000089859A8592878187DC011896FC93EE9301
:100610001797FA87E987EA012A97D983C883DA010D
:1006200018970B2E11960C921197AC930A2E1B2E35
:1006300013961C920E9211241297CF01DF91CF9145
:100640000895CF93DF93F894A5DFEC0160E070E0AC
:10065000DDDE7894CE01DF91CF9108950F931F9343
:10066000CF93DF93C0914602D0914702998B888B3C
:100670008E010E5E1F4F8A899B890817190759F052
:10068000FC01208131813B8B2A8B4DDE8A899B893D
:1006900080179107A9F78F8581110CC0E985FA852C
:1006A0008F81988590878783AF81B8851A96FC9350
:1006B000EE9319978FE0DF91CF911F910F9155CE57
:1006C000F894CCCFF894BC0188E06BDE7894089560
:1006D000CF93DF936115710599F0E0914602F09197
:1006E000470291838083EC01AA81BB81B383A283FB
:1006F000ED93FC93FB83EA8384E0DF91CF9151CEAD
:100700008FEF9FEFDF91CF910895CF93DF93FC019F
:1007100080819181E817F90771F0EC01A881B98116
:10072000B183A0831396FC93EE931297798B688B19
:10073000DF91CF91F8CDDF91CF910895FC019183A6
:10074000808393838283158214820895FC01908DA7
:10075000692B608F85858A3059F08B3009F00895B8
:10076000808968238613FBCF118A108ACF01DBCDE5
:1007700080896823C9F70895EF92FF921F93CF9362
:10078000DF937C01162FFC01C081D1818C179D075E
:1007900091F09D81912B9D83112319F02E8192233D
:1007A00021F06C818A819B81D1DF0990D881C02D95
:1007B000EC16FD0671F7DF91CF911F91FF90EF903E
:1007C0000895EEE6F2E084E491E09183808384EC86
:1007D00091E0938382830895F894FB01319771959A
:1007E0006195710920916E0230916F02420F531F83
:1007F0004E0F5F1F462357238E0F9F1F68237923B9
:10080000CA01860F971F609170027091710268177C
:10081000790750F08217930738F090936F02809316
:100820006E02CA017894089580E090E0789408956B
:10083000E4ECF1E08CEE93E09183808313821282EA
:10084000158214828AEC91E079CF2F923F924F92D9
:100850005F926F927F928F929F92AF92BF92CF9250
:10086000DF92EF92FF920F931F93CF93DF93FB01E1
:100870000DB605820EB60682FC0105800DBE06800F
:100880000EBEDF91CF911F910F91FF90EF90DF90FF
:10089000CF90BF90AF909F908F907F906F905F9020
:1008A0004F903F902F9008957894C201F1010995DF
:1008B00007CFE2D28DE391E0E0D245D268D279D47D
:1008C00000C014C3AF92BF92CF92DF92EF92FF921B
:1008D0000F931F93CF93DF93EC016B018A018C81FF
:1008E0009D818417950710F40C811D816C857D8591
:1008F000E884F984E61AF70A0E151F0580F1E01660
:10090000F106C8F0A801C6018AD78E819F819D8714
:100910008C878C819D81801B910B9D838C83C8016A
:10092000DF91CF911F910F91FF90EF90DF90CF90CB
:10093000BF90AF900895A701C60171D75801AE18B6
:10094000BF086E817F81A501C6018E0D9F1D67D7EF
:100950008E819F81A80EB91EBD86AC86DACFA80114
:10096000C6015DD78C859D85800F911F9D878C87E3
:10097000D0CFAF92BF92CF92DF92EF92FF920F93C0
:100980001F93CF93DF93EC016B018A018C819D81D2
:100990008417950710F40C811D818A859B85E88456
:1009A000F984E81AF90A0E151F0580F1E016F10620
:1009B000C8F0A801B60133D78E819F819B878A87B3
:1009C0008C819D81801B910B9D838C83C801DF915D
:1009D000CF911F910F91FF90EF90DF90CF90BF903C
:1009E000AF900895A701B6011AD75801AE18BF08F5
:1009F000B6016E0D7F1DA5018E819F8110D78E815E
:100A00009F81A80EB91EBB86AA86DACFA801B601BF
:100A100006D78A859B85800F911F9B878A87D0CFB9
:100A20000F931F93FC0191838083938382831582AC
:100A30001482778366837587648773876287640F00
:100A4000751F7187608737872687118B008B1F91F1
:100A50000F910895FC01A285B38584859585A8171B
:100A6000B907E1F084819581019695838483CD0156
:100A70000196938782876C93228533858085918543
:100A80002817390720F08681978193878287CF01C5
:100A900060E070E03ADE80E090E008958481958126
:100AA000892B01F38FEF9FEF08950F931F93CF933F
:100AB000DF93EC018B01F89405C0B801CE0108DE8C
:100AC00097FD27C08C819D81892BB9F38C819D81F5
:100AD00001979D838C83EC85FD85CF0101969D87D1
:100AE0008C871081288539858217930720F08E81A5
:100AF0009F819D878C87EE85FF85309711F0CE0111
:100B000009957894812F90E0DF91CF911F910F91FB
:100B100008957894DF91CF911F910F9108956F926E
:100B20007F928F929F92AF92BF92CF92DF92EF927D
:100B3000FF920F931F93CF93DF936C018B017A0188
:100B40004901FC01A684B784F894C0E0D0E0452BAD
:100B500081F41BC0A114B10419F0C601F501099577
:100B60007894C60DD71D060D171DF894CE15DF0518
:100B700060F4A701B801C601A5DE3C01892B51F73D
:100B8000B401C601A5DD892B89F37894CE01DF91EC
:100B9000CF911F910F91FF90EF90DF90CF90BF907A
:100BA000AF909F908F907F906F9008950F931F93B9
:100BB000FC0191838083938382835583448377836D
:100BC00066837587648773876287460F571F5187CF
:100BD000408737872687118B008B1F910F910895CF
:100BE000FF920F931F93CF93DF93EC01F62E8A01B0
:100BF000F89405C0B801CE016BDD97FD2AC08C8149
:100C00009D81892BB9F38C819D8101979D838C8374
:100C1000EA85FB85CF0101969B878A87F0822A852A
:100C20003B85888599852817390720F08E819F811B
:100C30009B878A87EE85FF85309711F0CE01099555
:100C4000789480E090E0DF91CF911F910F91FF9019
:100C500008957894DF91CF911F910F91FF9008959F
:100C6000CF93FC01A485B585828593858A179B0760
:100C7000E1F084819581019695838483CD0101966D
:100C800095878487CC91208531858217930740F41E
:100C9000CF0160E070E039DD8C2F90E0CF910895B6
:100CA0008681978195878487F3CF84819581892B6D
:100CB00001F38FEF9FEFF2CF6F927F928F929F920F
:100CC000AF92BF92CF92DF92EF92FF920F931F935A
:100CD000CF93DF936C018B017A014901FC01A6845B
:100CE000B784F894C0E0D0E0452B81F41BC0A11478
:100CF000B10419F0C601F50109957894C60DD71D08
:100D0000060D171DF894CE15DF0560F4A701B80194
:100D1000C6012FDE3C01892B51F7B401C601D8DC96
:100D2000892B89F37894CE01DF91CF911F910F9198
:100D3000FF90EF90DF90CF90BF90AF909F908F90FB
:100D40007F906F90089578C1FC0181E080831282CA
:100D5000118215821682089580E090E0089505962C
:100D6000DECE2FEF3FEF0596DACE4796A5CF2FEFD9
:100D70003FEF4796A1CF059698CE6FEF7FEF059690
:100D800094CE47962DCF4FEF5FEF479629CFD9C12D
:100D9000EF92FF920F931F93CF93DF93EC019B0190
:100DA0007A01FC0186E291E081939193FB83EA83CF
:100DB00081E08C83BE01675D7F4F8E0140E250E091
:100DC000CE0105962DDEBE01675B7F4F970140E2A5
:100DD00050E0CE014796EADEDF91CF911F910F914F
:100DE000FF90EF900895CF93DF93EC01F894B0D18A
:100DF00082E08C837894DF91CF9108951F93CF93F5
:100E0000DF93EC01162F89859A85892B51F0612F8C
:100E1000CE0105961FDE97FD0EC0DF91CF911F9189
:100E2000089564E0CE010296A7DC612FCE010596FD
:100E300011DE97FFF2CF60E0CE010296DF91CF91F5
:100E40001F919ACC0F931F93CF93DF938C014796FA
:100E500007DFEC0197FD06C0CE01DF91CF911F9116
:100E60000F91089568E0C801029686DCCE01DF91FB
:100E7000CF911F910F9108950895FC01808185B94C
:100E8000818184B9828188B9838187B984818BB952
:100E900085818AB908951F920F920FB60F9211247F
:100EA0002F933F934F935F936F937F938F939F9372
:100EB000AF93BF93EF93FF9381E0809372021BD9AE
:100EC00010927202EFDA8111FDDAFF91EF91BF917A
:100ED000AF919F918F917F916F915F914F913F91D2
:100EE0002F910F900FBE0F901F90189582E084BD38
:100EF00085BD9FE797BD16BC85BB80936E000895A6
:100F00001F920F920FB60F9211242F933F934F937E
:100F10005F936F937F938F939F93AF93BF93EF9361
:100F2000FF9381E080937202E0917402F091750268
:100F30000680F781E02D83E792E009951092720216
:100F4000B1DA8111BFDAFF91EF91BF91AF919F911B
:100F50008F917F916F915F914F913F912F910F9062
:100F60000FBE0F901F9018951F920F920FB60F9201
:100F700011242F933F934F935F936F937F938F939E
:100F80009F93AF93BF93EF93FF9381E0809372029F
:100F9000E0917402F09175020184F285E02D83E7FF
:100FA00092E00995109272027DDA81118BDAFF913D
:100FB000EF91BF91AF919F918F917F916F915F91D1
:100FC0004F913F912F910F900FBE0F901F9018954A
:100FD0001F920F920FB60F9211242F933F934F93AE
:100FE0005F936F937F938F939F93AF93BF93EF9391
:100FF000FF9381E080937202E0917402F091750298
:101000000484F585E02D83E792E009951092720241
:1010100049DA811157DAFF91EF91BF91AF919F911A
:101020008F917F916F915F914F913F912F910F9091
:101030000FBE0F901F90189583E792E085DE82E047
:10104000809379020895E1ECF0E0808180628083F2
:1010500008951F920F920FB60F9211242F933F9372
:101060004F935F936F937F938F939F93AF93BF93B0
:10107000EF93FF9381E0809372028091C000982FDC
:101080009C71D9F46091C6008AE792E0B7DE1092B5
:10109000720208DA811116DAFF91EF91BF91AF91D8
:1010A0009F918F917F916F915F914F913F912F9180
:1010B0000F900FBE0F901F90189583FD09C060E040
:1010C00082FD606284FD60648CE792E055DBDACFDC
:1010D00060E8F6CF1F920F920FB60F9211242F9354
:1010E0003F934F935F936F937F938F939F93AF93B0
:1010F000BF93EF93FF9381E0809372028AE792E0BF
:10110000A1DE97FD18C08093C60010927202CAD962
:101110008111D8D9FF91EF91BF91AF919F918F919C
:101120007F916F915F914F913F912F910F900FBEE3
:101130000F901F9018958091C1008F7D8093C10002
:10114000E4CF43E258E060E070E08AE792E020CE2E
:101150006115710519F18A57924009F00895FB0154
:1011600080818093C40081818F708093C50082E06C
:101170008093C00088E98093C10082818130B9F0FA
:10118000A0F0823071F0843071F48091C1008460ED
:101190008093C10086E08093C20008956AE371E005
:1011A000DACF84E0F8CF86E0F6CF80E0F4CF82E0BB
:1011B000F2CF109269001DBA08957BDB0E94640093
:1011C00060E070E08AE792E00EDE8BE196E07ADA8A
:1011D000FCCFACE0B0E0EEEEF8E0DBC26C015B010E
:1011E0007A01FC0117821682838181FF04C1CE013E
:1011F00001964C01F6010381F50103FD159103FFF2
:1012000011915F01112309F4F2C0153249F403FD75
:10121000159103FF11915F01153211F020E019C003
:10122000B601812F90E042D337017301E3CF112340
:1012300009F4DDC0612F70E08FE690E02C87E4D2E6
:101240002C85892B49F0F50103FD159103FF1191C0
:101250005F0127FFECCF09C0133229F01C3609F0DB
:10126000CDC02068F0CF20E1EECF022F112309F48A
:10127000BEC0612F70E088E690E02C87C5D22C8537
:10128000892B41F03701F4E06F0E711CB6018FE33A
:1012900090E011C0133639F0133779F0133509F5A2
:1012A000022F01600AC0370182E0680E711CB6018E
:1012B000F70180819181FAD2B8CF3701F2E06F0E49
:1012C000711CF701E080F180F70100FD859100FFBE
:1012D00081917F01882309F4A8CFB60190E0E6D27E
:1012E000F3CF143611F0193629F5370127FF09C05D
:1012F000F4E06F0E711CF70160817181828193812E
:101300000AC0F2E06F0E711CF70160817181072E37
:10131000000C880B990B022F0F7E97FF08C0909549
:101320008095709561957F4F8F4F9F4F00642AE0A5
:1013300030E033C0103799F040F41835B1F01F3663
:1013400009F055C028E030E014C0153719F01837FF
:1013500041F04DC0022F0F7E2AE030E00AC0022F7C
:101360000061046220E130E004C0022F046020E14B
:1013700032E0370107FF09C0F4E06F0E711CF7017E
:10138000608171818281938108C0F2E06F0E711CCF
:10139000F7016081718180E090E0A401D8D2182F1C
:1013A000181906FF04C0B6018DE290E07FD204FF59
:1013B00013C0FE01E10FF11D8081803369F0B60199
:1013C00080E390E073D202FF07C00072802F90E0AC
:1013D000B601885A9F4F6AD21150F401E10FF11DF6
:1013E0008081B60190E062D21111F6CF1ECFF601D6
:1013F0008681978105C08FEF9FEF02C0022F39CF02
:101400002C96EEE0E2C120FD09C0FC0123FD05C0E1
:1014100022FF02C07383628351834083089544FD99
:1014200010C046FD10C0DB01FC01AA0FBB1FEE1F60
:10143000FF1F1094D1F76A0F7B1F8E1F9F1F31E093
:1014400003C033E001C034E0660F771F881F991F87
:101450003150D1F7620F711D811D911D08950F93B9
:101460001F93CF93DF938C01C801E2D1EC0197FD6C
:1014700006C0C2D1892BC1F7B801CE014FD2CE012F
:10148000DF91CF911F910F910895A1E0B0E0EAE4C0
:10149000FAE081C18C01C62E7A012983C9D1AC0141
:1014A000552729814B32510521F04D32510561F408
:1014B0002068CA94C11002C080E06FC0C8012983AF
:1014C000B7D1298197FDF8CF322F3D7FD32E322F10
:1014D000307339F5803329F5BB24BA94BC0C09F478
:1014E00049C0C8012983A4D1298197FD43C0382F61
:1014F0003F7D383561F48D2D8264D82ECA94CA940C
:10150000CC20C1F1C80194D197FF0BC033C026FF96
:1015100004C02D2D2260D22E03C03D2D3261D32E6A
:10152000CB2C812C912C540120ED280F283078F001
:10153000D4FE03C0B801F2D11AC02A3040F0D6FE62
:10154000F9CF2F7D3FEE320F3630A0F727504D2DCB
:10155000C501B40164DF4B015C018D2D8260D82E82
:10156000CA94CC2051F0C80163D197FFDDCFD1FCE4
:1015700004C0A2CF812C912C5401D7FE08C0B09496
:10158000A09490948094811C911CA11CB11C2D2DC1
:10159000B501A401C70137DF81E02196ECE017C156
:1015A000A1E0B0E0E5EDFAE0F2C07C012B015A01C8
:1015B000FC0117821682812CF7017380F20173FC03
:1015C000859173FE8191382F2F01882309F4D5C0AE
:1015D00090E0398311D13981892B19F0C7013FDFA0
:1015E000EBCF353241F4F20173FC359173FE31914A
:1015F0002F01353259F4C70139831AD1398197FD4A
:10160000BAC03817C9F2B70189D1B7C03A3239F434
:1016100073FC359173FE31912F0111E001C010E090
:10162000620160E020ED230F2A3068F4126070E060
:1016300080E090E040E2F3DEF60173FC359173FE4A
:1016400031916F01EFCF962E032F260111FF03C0BA
:10165000611103C092C099249A94383619F03C362F
:1016600051F010C0F60173FC059173FE01912F013A
:10167000083641F418601460F20173FC059173FEA2
:1016800001912F01002309F478C0602F70E08FE7EB
:1016900090E0BAD0892B09F470C010FD07C0F501A5
:1016A000C080D180C50102965C0102C0C12CD12C42
:1016B0000E3649F4F7014681578160E070E0212F32
:1016C000C601A1DE79CF0336A1F411FD02C0992431
:1016D0009394C701ADD097FD4EC0C114D10429F039
:1016E000F6018083C60101966C019A949110F1CFA6
:1016F0003EC0C701B4DE97FD3EC00F3649F128F465
:10170000043621F1093639F125C0033771F0053768
:10171000E9F020C0C114D10429F0F6016082C601AD
:1017200001966C019A94992059F0C70181D03C012F
:1017300097FD06C061D0892B69F3B701C301EED0D4
:10174000C114D104A1F0F601108211C0106203C0CF
:10175000106101C01064212FA601692DC70195DE1B
:10176000811105C0F7018381807329F406C010FD43
:1017700023CF839421CF882019F0882D90E002C0D8
:101780008FEF9FEF2196E0E11EC02F923F924F9284
:101790005F926F927F928F929F92AF92BF92CF9201
:1017A000DF92EF92FF920F931F93CF93DF93CDB70A
:1017B000DEB7CA1BDB0B0FB6F894DEBF0FBECDBF82
:1017C00009942A88398848885F846E847D848C8453
:1017D0009B84AA84B984C884DF80EE80FD800C815C
:1017E0001B81AA81B981CE0FD11D0FB6F894DEBF3F
:1017F0000FBECDBFED010895911107C1803219F0E0
:1018000089508550D0F70895FC010590061621F007
:101810000020D9F7C00108953197CF010895FB0149
:10182000DC0102C001900D9241505040D8F708955C
:10183000CF93DF93EC012B8120FF33C026FF0AC03A
:101840002F7B2B838E819F8101969F838E838A813C
:1018500090E029C022FF0FC0E881F9818081082E25
:10186000000C990B009719F420622B831AC0319653
:10187000F983E8830EC0EA85FB85099597FF09C0C7
:101880002B81019611F080E201C080E1822B8B83D5
:1018900008C02E813F812F5F3F4F3F832E839927C2
:1018A00002C08FEF9FEFDF91CF9108950F931F93A9
:1018B000CF93DF93FB01238121FD03C08FEF9FEFC7
:1018C00028C022FF16C046815781248135814217E6
:1018D000530744F4A081B1819D012F5F3F4F3183B5
:1018E00020838C93268137812F5F3F4F3783268358
:1018F00010C0EB01092F182F0084F185E02D099508
:10190000892BE1F68E819F8101969F838E83812FA3
:10191000902FDF91CF911F910F910895FB012381AB
:1019200020FF12C026FD10C08F3F3FEF930761F0EC
:1019300082832F7D206423832681378121503109C2
:1019400037832683992708958FEF9FEF0895FA0133
:10195000AA27283051F1203181F1E8946F936E7FEE
:101960006E5F7F4F8F4F9F4FAF4FB1E03ED0B4E0DF
:101970003CD0670F781F891F9A1FA11D680F791F20
:101980008A1F911DA11D6A0F711D811D911DA11D31
:1019900020D009F468943F912AE0269F1124301941
:1019A000305D3193DEF6CF010895462F4770405DDC
:1019B0004193B3E00FD0C9F7F6CF462F4F70405D8B
:1019C0004A3318F0495D31FD4052419302D0A9F7E6
:1019D000EACFB4E0A6959795879577956795BA95E0
:1019E000C9F700976105710508959B01AC010A2EA6
:1019F00006945795479537952795BA95C9F7620F7D
:101A0000731F841F951FA01D089599278827089587
:041A1000F894FFCF78
:101A140069646C65000001D2013B020163000000AF
:101A24006D61696E0016002802021C040507090B8B
:101A3400000D0E0000000000B706B106C306BD0687
:101A4400C106BB06B506AF06AC06100003FF20FFB7
:041A540000FF02008D
:00000001FF
