:100000000C9434000C943E000C943E000C943E0082
:100010000C943E000C943E000C943E000C943E0068
:100020000C943E000C943E000C943E000C943E0058
:100030000C943E000C943E000C943E000C943E0048
:100040000C943E000C943E000C943E000C943E0038
:100050000C943E000C943E000C943E000C943E0028
:100060000C943E000C943E0011241FBECFEFD8E04C
:10007000DEBFCDBF0E9440000C9483000C940000B2
:1000800081E084B982E084B984E084B9289A2FEFB2
:1000900084E39CE0215080409040E1F700C00000E4
:1000A000299A2FEF84E39CE0215080409040E1F7B3
:1000B00000C000002A9A2FEF84E39CE0215080408A
:1000C0009040E1F700C0000028982FEF84E39CE007
:1000D000215080409040E1F700C0000029982FEFA8
:1000E00084E39CE0215080409040E1F700C0000094
:1000F0002A982FEF84E39CE0215080409040E1F764
:0A01000000C00000C3CFF894FFCF49
:00000001FF
