:1000000044C000005FC000005DC000005BC0000095
:1000100059C0000057C0000055C0000053C0000088
:1000200051C000004FC000004DC000000C94410AB8
:1000300049C0000047C0000045C0000043C00000A8
:1000400041C000003FC000000C948C0A0C94CD0A03
:1000500039C000000C94A90835C0000033C000006E
:1000600031C000002FC0000045464765666700208C
:100070002B2D2E3031323334353637383968006322
:1000800064696E6F70737578580011241FBECFEFCE
:10009000D8E0DEBFCDBF11E0A0E0B1E0EAEDFFE1C6
:1000A00002C005900D92A23BB107D9F723E0A2EB65
:1000B000B1E001C01D92A53CB207E1F70E94B70B69
:1000C0000C94EB0F9DCFFFCFF0D18AD0A1D4DFD419
:1000D00040E86DE171E081E493E003D3FC0190938B
:1000E00036038093350391E095879093610378946C
:1000F0008BE091E07CC3CF92DF92EF92FF920F935F
:100100001F93CF93DF93C0913703D09138034C8175
:100110005D8187E3E82E83E0F82E80918400909142
:10012000850020913D0330913E038C01021B130B8F
:100130000417150790F42AC088859985F60109955A
:10014000C0913703D09138034C815D8104171507A6
:1001500020F320913D0330913E03240F351F30934F
:100160003E0320933D03041B150BE881F981F382C4
:10017000E282F0933803E0933703CE80DF801F8262
:100180001E82E753F340C1F6D6D4D6CFF3E0C7338F
:10019000DF07E9F090933E0380933D034C815D813E
:1001A000240F351F281B390B3D832C83223031054A
:1001B00058F0820F931FDF91CF911F910F91FF9005
:1001C000EF90DF90CF90BAC422E030E0F2CFDF9121
:1001D000CF911F910F91FF90EF90DF90CF900895F6
:1001E000EAE2F3E087E393E096878587908B878741
:1001F0008FEF9FEF928B818B148A138A0895EF9271
:10020000FF920F931F93CF93DF937C01DC0119962C
:100210003C932E93189717965C934E931697809164
:10022000840090918500EB016230710510F4C2E00A
:10023000D0E00091370310913803B3E007331B0778
:1002400009F45CC040913D0350913E03841B950B23
:10025000C80FD91FD80114962D913C911597C81736
:10026000D907D8F1C217D30708F43FC02C173D07B0
:1002700060F4C21BD30BF80100811181D8011496E0
:100280002D913C912C173D07A0F3F70111830083BA
:10029000D8011296ED91FC91D7011396FC93EE9341
:1002A0001297F182E082F801F382E2821596DC93E4
:1002B000CE931497848195818C1B9D0B95838483A9
:1002C0008FEF9FEF90933C0380933B03DF91CF919F
:1002D0001F910F91FF90EF900895C21BD30B0D91CA
:1002E0001C91F80124813581C1CFCA018C0F9D1F5B
:1002F00025D4D80114962D913C91B8CF90933E030C
:1003000080933D03F0923803E0923703F0923A0372
:10031000E0923903F7011183008313830283D583AD
:10032000C4838C0F9D1FDF91CF911F910F91FF9080
:10033000EF90F8C3CF93DF93FC01A081B181C0910E
:100340003703D0913803C817D907F9F0C281D38198
:10035000B983A883A081B1811396DC93CE931297C1
:100360001782168283E0A733B80761F014968D9147
:100370009C91159724813581820F931F15969C932C
:100380008E931497DF91CF910895B0933803A09383
:10039000370387E393E013969C938E9312971F8203
:1003A0001E82A817B90779F114968D919C91159723
:1003B0002C813D81820F931F15969C938E931497E9
:1003C000409184005091850020913D0330913E037F
:1003D000BA01621B730B68177907A0F6F901E41BD9
:1003E000F50BAF01480F591F4230510528F0820F1D
:1003F000931FDF91CF91A2C3CB010296820F931F6F
:10040000DF91CF919BC3DF91CF9195C3CF93DF93C2
:10041000DC011D968C911D978430D9F170F58823ED
:1004200049F1833031F45096ED91FC91519711824E
:1004300010828FEF9FEF51969C938E9350971D964D
:100440001C921D9714968C911497EAE2F3E00190A8
:10045000F081E02D94819817D0F71196FC93EE93DC
:10046000C281D3811396DC93CE931297B983A8836C
:10047000B383A283DF91CF910895853041F45096E4
:10048000ED91FC91519784818F5F848302C0873006
:1004900081F61296CD91DC911397ED91FC91119715
:1004A000F983E883D383C283C4CFEAE2F3E0F18324
:1004B000E083F383E2831482F087E783F287E187A6
:1004C0000895CF93DF93DC011D961C921D9714961F
:1004D0002C911497EAE2F3E00190F081E02D9481F1
:1004E0009217D0F71196FC93EE93C281D3811396A5
:1004F000DC93CE931297B983A883B383A283CD01F3
:10050000DF91CF910895CF93DF93EAE2F3E0638523
:100510007485DB011D968C9380819181EC01A8810B
:10052000B981B183A0831396FC93EE9312979487BD
:10053000838721E02D87B8D2DF91CF9108951F9353
:10054000CF93DF93CDB7DEB72A970FB6F894DEBF0F
:100550000FBECDBF182F6F3F760711F120913503E5
:100560003091360346E052E0CE01019648DE812FFD
:10057000CADF8F819885892B19F0CE010196DADECA
:10058000E0913503F0913603808991892A960FB660
:10059000F894DEBF0FBECDBFDF91CF911F910895BC
:1005A000812FB1DFEDCFCF93DF93DC014091350395
:1005B0005091360351967C936E93509714962C91DC
:1005C0001497EA018C818217D8F01D961C921D9712
:1005D000EAE2F3E00190F081E02D94819217D0F7E8
:1005E0001196FC93EE93C281D3811396DC93CE9344
:1005F0001297B983A883B383A283DF91CF91089523
:100600001D86EAE2F3E00190F081E02D94819817D5
:10061000D0F7EA01F983E883828193819B838A83FF
:10062000EC015983488353834283B0933603A093EC
:10063000350381E01D968C931D97BA01CD0134D20C
:10064000DF91CF910895A0912A03B0912B03E091FF
:100650003503F091360381E014962C919481921722
:1006600008F080E00895CF93DF93A0913503B09117
:10067000360340912A0350912B03EA01E881F98166
:10068000F0932B03E0932A038AE293E0938382831F
:10069000509336034093350381E08D8714962C9157
:1006A00014971D961C921D97EAE2F3E00190F081E9
:1006B000E02D94812917D0F31196FC93EE9382815B
:1006C000938113969C938E931297EC01B983A88320
:1006D000B383A283BD01CA01E7D1DF91CF91089511
:1006E000C2CFCF93DF93FC01448382E085871686D7
:1006F000438F128E118E108E81E0878774876387F7
:10070000AAE2B3E0B087A7831996CD91DC911A973E
:10071000D287C187F887EF831A96FC93EE931997D7
:10072000CF014296938B828B0296958B848B978B0D
:10073000868BCF01DF91CF910895CF93DF93DC01BA
:1007400014962D913C911597F9017C97E901E19759
:10075000D683C58317969C91179718968C911897F6
:100760009A8B898B19969C9119971A968C911A9746
:10077000988B8F8783E895E09B8B8C8B16968C915A
:1007800016974D915C91848392E095871686838FAE
:10079000128E118E108E81E0878754874387AAE2DC
:1007A000B3E0B087A7831996CD91DC911A97D287D1
:1007B000C187F887EF831A96FC93EE931997D901B6
:1007C0001A970B2E11960C921197AC9312960B2E32
:1007D00011960C921197AC930A2E1B2E13961C9215
:1007E0000E9211241297CF01DF91CF910895CF93EC
:1007F000DF93F894A2DFEC0170E060E0D4DE78943F
:10080000CE01DF91CF9108950F931F93CF93DF9384
:10081000F8946C517109EC01C60FD71FFE01759752
:10082000FE83ED83228B318B008B178783E895E065
:10083000938B848B4C8382E08D871E864B8F1A8E20
:10084000198E188E81E08F8786E191E09C878B87D7
:10085000EAE2F3E0F887EF83A185B285BA87A9873A
:100860001896DC93CE931797D287C187CE01429614
:100870009B8B8A8B02969D8B8C8B9F8B8E8B70E0D3
:1008800060E0CE0190DE7894CE01DF91CF911F9190
:100890000F9108950F931F93CF93DF93C09135036A
:1008A000D0913603998B888B8E010E5E1F4F8A89FB
:1008B0009B890817190759F0FC01208131813B8B76
:1008C0002A8BFFDD8A899B8980179107A9F78F857D
:1008D00081110AC0A985BA85EF81F8851896FC9325
:1008E000EE931797B287A1878FE0DF91CF911F9189
:1008F0000F9109CEF894CECFF894BC0188E01FDEAA
:1009000078940895DC01ED91FC911197309731F0C6
:100910001D921C92718B608BCF01D3CD0895CF9324
:10092000DF936115710599F0E0913503F09136037D
:1009300091838083EC01AA81BB81B383A283ED9371
:10094000FC93FB83EA8384E0DF91CF91F8CD8FEFB6
:100950009FEFDF91CF910895CF93DF93FC018081CA
:100960009181E817F90771F0EC01A881B981B18391
:10097000A0831396FC93EE931297798B688BDF918B
:10098000CF919FCDDF91CF910895FC01918380831A
:1009900093838283158214820895FC01808D682BD5
:1009A000608F85858A3059F08B3009F008958089F1
:1009B00068238613FBCF118A108ACF0182CD8089EC
:1009C0006823C9F70895EF92FF921F93CF93DF93A7
:1009D0007C01162FFC01C081D1818C179D0791F0FD
:1009E0008D81812B8D83112319F09E81892321F024
:1009F0006C818A819B81D1DF0990D881C02DEC1652
:100A0000FD0671F7DF91CF911F91FF90EF90089550
:100A1000EDE5F3E082EB91E09183808382E392E065
:100A2000938382830895CF93DF939C01F894EB0125
:100A30002197EE27FF27E61BF70BA0915D03B091EE
:100A40005E03CD01840F951F8C0F9D1F8E239F2366
:100A5000B9016C0F7D1F6E237F23680F791F2091D2
:100A60005F03309160032617370758F06A177B073A
:100A700040F070935E0360935D037894DF91CF91B3
:100A8000089590E080E07894DF91CF910895E2E3BB
:100A9000F2E083E195E091838083138212821582D4
:100AA000148288E392E071CF2F923F924F925F922F
:100AB0006F927F928F929F92AF92BF92CF92DF926E
:100AC000EF92FF920F931F93CF93DF93FB010DB62D
:100AD00005820EB60682FC0105800DBE06800EBEA4
:100AE000DF91CF911F910F91FF90EF90DF90CF900A
:100AF000BF90AF909F908F907F906F905F904F903E
:100B00003F902F9008957894C201F1010995F2CE9B
:100B100008951ED387E491E081D45FD2A4D2C0D5DA
:100B200000C0DDC4909389008093880082E086BB7A
:100B300080936F00089510926F000895909389003C
:100B4000809388000895AF92BF92CF92DF92EF9288
:100B5000FF920F931F93CF93DF93EC016B018A01F8
:100B60008C819D818417950710F40C811D816C8503
:100B70007D85E884F984E61AF70A0E151F0598F1B9
:100B8000E016F106D0F0A801C6010E94FF0E8E818A
:100B90009F819D878C878C819D81801B910B9D837C
:100BA0008C83C801DF91CF911F910F91FF90EF903F
:100BB000DF90CF90BF90AF900895A701C6010E942B
:100BC000FF0E5801AE18BF086E817F81A501C601D6
:100BD0008E0D9F1D0E94FF0E4E815F814A0D5B1D91
:100BE0005D874C87D8CFA801C6010E94FF0E8C8577
:100BF0009D85800F911F9D878C87CDCFAF92BF922F
:100C0000CF92DF92EF92FF920F931F93CF93DF93D8
:100C1000EC016B018A018C819D818417950710F48A
:100C20000C811D818A859B85E884F984E81AF90A7C
:100C30000E151F0598F1E016F106D0F0A801B601D7
:100C40000E94FF0E8E819F819B878A878C819D8168
:100C5000801B910B9D838C83C801DF91CF911F91E5
:100C60000F91FF90EF90DF90CF90BF90AF900895DD
:100C7000A701B6010E94FF0E5801AE18BF08B601C9
:100C80006E0D7F1DA5018E819F810E94FF0E4E81FA
:100C90005F814A0D5B1D5B874A87D8CFA801B601EB
:100CA0000E94FF0E8A859B85800F911F9B878A87F4
:100CB000CDCF0F931F93FC01918380839383828315
:100CC000158214827783668375876487738762874A
:100CD000640F751F7187608737872687118B008B9C
:100CE0001F910F910895FC01A285B3858485958598
:100CF000A817B907E1F084819581019695838483D3
:100D0000CD010196938782876C93228533858085F8
:100D100091852817390720F08681978193878287EC
:100D200070E060E0CF0118DE90E080E008958481FB
:100D30009581892B01F38FEF9FEF08950F931F93F8
:100D4000CF93DF93EC018B01F89405C0B801CE017D
:100D5000E6DD97FD27C08C819D81892BB9F38C81BD
:100D60009D8101979D838C83EC85FD85CF01019644
:100D70009D878C871081288539858217930720F0FD
:100D80008E819F819D878C87EE85FF85309711F03E
:100D9000CE0109957894812F90E0DF91CF911F913A
:100DA0000F9108957894DF91CF911F910F9108953D
:100DB0006F927F928F929F92AF92BF92CF92DF926B
:100DC000EF92FF920F931F93CF93DF934C017B0120
:100DD0006A013901FC01A684B784F89410E000E0B0
:100DE000452B81F41BC0A114B10419F0C401F50115
:100DF000099578940C0F1D1FEC0EFD1EF8940C1530
:100E00001D0560F4A601B701C4019DDEEC01892B2C
:100E100051F7B301C40183DD892B89F37894C801AC
:100E2000DF91CF911F910F91FF90EF90DF90CF90C6
:100E3000BF90AF909F908F907F906F9008950F9389
:100E40001F93FC0191838083938382835583448322
:100E5000778366837587648773876287640F751FDE
:100E60007187608737872687118B008B1F910F91C1
:100E70000895FF920F931F93CF93DF93EC01F62E0B
:100E80008A01F89405C0B801CE0149DD97FD2AC05A
:100E90008C819D81892BB9F38C819D8101979D83E4
:100EA0008C83EA85FB85CF0101969B878A87F08238
:100EB0002A853B85888599852817390720F08E81FA
:100EC0009F819B878A87EE85FF85309711F0CE0141
:100ED0000995789490E080E0DF91CF911F910F9178
:100EE000FF9008957894DF91CF911F910F91FF901B
:100EF0000895CF93FC01A485B585828593858A17D3
:100F00009B07E1F084819581019695838483CD01CF
:100F1000019695878487CC91208531858217930728
:100F200040F470E060E0CF0117DD8C2F90E0CF91AE
:100F300008958681978195878487F3CF84819581F1
:100F4000892B01F38FEF9FEFCF9108956F927F92DE
:100F50008F929F92AF92BF92CF92DF92EF92FF92C9
:100F60000F931F93CF93DF934C017B016A013901EB
:100F7000FC01A684B784F89410E000E0452B81F4CE
:100F80001BC0A114B10419F0C401F50109957894AE
:100F90000C0F1D1FEC0EFD1EF8940C151D0560F4C2
:100FA000A601B701C4012ADEEC01892B51F7B30178
:100FB000C401B5DC892B89F37894C801DF91CF9106
:100FC0001F910F91FF90EF90DF90CF90BF90AF9067
:100FD0009F908F907F906F900895DDC1FC0181E01C
:100FE00080831282118214821382168215821086E7
:100FF000178212861186CF010B96C7CCCF93DF9351
:10100000EC01F8947A836983CFD182E08883789465
:10101000DF91CF910895F894FC0154834383368384
:1010200025837087678323E02083D5D17894089542
:101030000596BECE2FEF3FEF0596BACE479686CFE8
:101040002FEF3FEF479682CF059678CE6FEF7FEF79
:10105000059674CE47960DCF4FEF5FEF479609CFB9
:1010600090E080E00895D6C2EF92FF920F931F9315
:10107000CF93DF93EC019B017A01FC0183E391E0C4
:1010800081939193FB83EA8381E08C83BE01675D4A
:101090007F4F8E0140E150E0CE0105960ADEBE0191
:1010A000675C7F4F970140E150E0CE014796C7DE75
:1010B000DF91CF911F910F91FF90EF900895CF9303
:1010C000DF93EC01F894ADD282E08C837894DF91C9
:1010D000CF9108951F93CF93DF93EC01162F89854D
:1010E0009A85892B51F0612FCE010596FCDD97FD85
:1010F0000EC0DF91CF911F91089564E0CE0102965A
:1011000062DC612FCE010596EEDD97FFF2CF60E045
:10111000CE010296DF91CF911F9155CC0F931F9373
:10112000CF93DF938C014796E4DEEC0197FD06C078
:10113000CE01DF91CF911F910F91089568E0C80112
:10114000029641DCCE01DF91CF911F910F9108955E
:1011500008951F920F920FB60F921124AF92BF9273
:10116000CF92DF92EF92FF920F931F932F933F93B3
:101170004F935F936F937F938F939F93AF93BF939F
:10118000CF93DF93EF93FF9381E08093610380918E
:101190007800909179000091650310916603E091C9
:1011A0007503F0917603EE0FFF1FE00FF11F91839F
:1011B000808320917503309176032F5F3F4F3093EA
:1011C000760320937503A0906703B0906803E091C5
:1011D0006903F0916A036F0161817281A69E7001BB
:1011E000A79EF00CB69EF00C1124C901AAD5EC0103
:1011F0008081882309F447C0209731F4B694A794DE
:10120000A616B70609F470C02E153F0509F48BC069
:10121000F6019581992359F020E090FF04C0CC237A
:1012200009F460C0C15096952F5F9111F6CF27E069
:1012300080917C00887F282B20937C0080917A000D
:10124000806480937A0010926103FDD9811148C0B7
:10125000FF91EF91DF91CF91BF91AF919F918F91CE
:101260007F916F915F914F913F912F911F910F91BE
:10127000FF90EF90DF90CF90BF90AF900F900FBE98
:101280000F901F9018952E153F0509F0C1CF809142
:101290007A008F7B80937A000380F481E02D309771
:1012A00009F467C084E08093620340916703509122
:1012B0006803609165037091660382E693E0099587
:1012C00080916203843009F454C070E060E08BE6E2
:1012D00093E018DB10926103B6D9882309F4B8CFE4
:1012E000FFD9B6CF2770A4CF0380F481E02D3097CB
:1012F00009F44CC0A501B80182E693E009958091FC
:10130000750390917603C0906903D0906A038E159F
:101310009F0509F07DCFE0916903F0916A03808118
:10132000882309F4B4CF238134812115310509F4D0
:101330008ACF409167035091680360916503709173
:10134000660342305105E8F0569547950180F281D9
:10135000E02D4E9FC0014F9F900D5E9F900D112478
:10136000880F991F680F791F82E693E0F9010995AC
:101370006ACF82E08093620310926A03109269033D
:10138000A4CF82E693E0F90109955DCF2E153F05C4
:1013900009F03ECF58CF82E693E020DE8FE08093C5
:1013A0007A0010927C000895DC012C91213029F400
:1013B00020917A00206820937A00DC011196ED914B
:1013C000FC91309739F080818295880F880F807C5E
:1013D00080937C000895DC0154961C921E925397D2
:1013E0001796ED91FC9185818823B1F090E080FD06
:1013F00007C086959F5F882379F080FFFACF9770AA
:1014000080917C00887F892B80937C0080917A007A
:10141000806480937A00089597E0F2CFFC01808188
:1014200085B9818184B9828188B9838187B98481B2
:101430008BB985818AB90895FC014230D1F058F00A
:101440004530B9F0463021F48181682B61830895DD
:10145000433029F00895442361F0413049F49181EB
:10146000862F8095892381838281682B62830895EA
:1014700008958181609586238183828168236283B8
:1014800008951F920F920FB60F9211242F933F933E
:101490004F935F936F937F938F939F93AF93BF937C
:1014A000EF93FF9381E0809361030E947B00109291
:1014B0006103C9D8811111C0FF91EF91BF91AF9124
:1014C0009F918F917F916F915F914F913F912F915C
:1014D0000F900FBE0F901F90189502D9EDCF10926C
:1014E0008000E1E8F0E088E08083109282001092B2
:1014F000890010928800109285001092840082E08A
:1015000086BB10926F0085E080830895E1ECF0E0E7
:1015100080818062808308951F920F920FB60F9290
:1015200011242F933F934F935F936F937F938F93E8
:101530009F93AF93BF93EF93FF9381E080936103F9
:101540008091C000982F9C71D9F46091C60087E704
:1015500093E0C0DD1092610376D881111CC0FF9129
:10156000EF91BF91AF919F918F917F916F915F911B
:101570004F913F912F910F900FBE0F901F90189594
:1015800060E883FF60E082FD606284FD606489E75B
:1015900093E019DADACFA4D8E2CF1F920F920FB6F8
:1015A0000F9211242F933F934F935F936F937F93E9
:1015B0008F939F93AF93BF93EF93FF9381E08093BB
:1015C000610387E793E0AADD97FD18C08093C6000A
:1015D0001092610338D881111BC0FF91EF91BF9128
:1015E000AF919F918F917F916F915F914F913F91BB
:1015F0002F910F900FBE0F901F9018958091C100F2
:101600008F7D8093C100109261031DD8882329F338
:1016100067D8E3CF46E85AE070E060E087E793E000
:1016200023CD6115710521F08757934099F00895F6
:1016300087579340E1F780E18093C4001092C50082
:1016400082E08093C00088E98093C10086E08093A7
:10165000C2000895FB0180818093C40081818F7056
:101660008093C50082E08093C00088E98093C10028
:101670008281813089F0882369F0823049F084309A
:1016800069F48091C10084608093C10086E0DFCF5F
:1016900084E0DDCF80E0DBCF82E0D9CF86E0D7CF1A
:1016A000109269001DBA089581E08093C1030895E6
:1016B000FC0101900020E9F73197AF01481B590B5D
:1016C000E0917703F09178030684F785E02D2FEF02
:1016D0003FEFBC0187E793E00994CF93DF93CDB749
:1016E000DEB7C85CD1090FB6F894DEBF0FBECDBF20
:1016F000E0913503F09136038DE491E09487838780
:101700008E010F5F1F4F19C088E691E0D1DFF8010D
:1017100001900020E9F73197AF01401B510BE09198
:101720007703F09178030280F381E02DB80187E719
:1017300093E0099588E09DE3DFD84A99E5CF80E7FB
:1017400091E0B6DFE4CF42E064E089E290E074DE4D
:1017500042E068E089E290E06FDE46E060E189E225
:1017600090E06ADE46E062E083E290E065CECDB7CD
:10177000DEB761970FB6F894DEBF0FBECDBFC9D9F3
:101780000E946400E0DF70E060E087E793E097DCB0
:1017900087E791E08DDF81E0898B86E0E0E0F1E092
:1017A000DE011B9601900D928A95E1F7BE016F5EF6
:1017B0007F4F82E693E022DC10E000E02DE63BE084
:1017C00040E861E870E080E492E01ED811E025E096
:1017D00030E0AE014F5F5F4FBE01655F7F4F82E635
:1017E00093E019DC1093C00385E991E061DFEFCF4E
:1017F000ABE0B0E0EDEFFBE0BCC25C016B013A0195
:10180000FC0117821682838181FFEBC0CE01019615
:101810004C01F501F380F601F3FC1591F3FE1191F3
:101820006F01112309F434C0153239F4F3FC15911A
:10183000F3FE11916F01153299F5B501812F90E0FA
:1018400021D3E7CF112321F1612F70E08FE690E0E3
:10185000CBD2892B99F4133209F11C3671F0612F28
:1018600070E088E690E0C0D2892BE1F0F4E06F0EE2
:10187000711CB5018FE390E0E3CF0068F601F3FC43
:101880001591F3FE11916F0107FFDCCF1111E7CF26
:10189000F501868197812B96EEE087C200E1EECFBD
:1018A00000E0F2CF133609F450C0133709F454C0E6
:1018B000133509F450C0143619F0193609F065C013
:1018C000F30107FF5AC061917191819191913F019C
:1018D0000F7E97FF08C090958095709561957F4F1A
:1018E0008F4F9F4F00642AE030E0A40113D3E82E0D
:1018F000E81806FF04C0B5018DE290E0C3D204FFF2
:1019000013C0FE01EE0DF11D8081803369F0B50139
:1019100080E390E0B7D202FF07C0802F807290E092
:10192000B501885A9F4FAED2EA94F12CFFEFEF1A1F
:10193000FF0AE80CF91CF70182917F01B50190E0E4
:10194000A1D2E814F904B9F764CFB501F30181918C
:1019500091913F0175CF0160F301E190F1903F015A
:10196000F70100FD859100FF81917F01882309F433
:1019700050CFB50190E086D2F3CF619171913F01D4
:10198000072E000C880B990BA3CF1037F1F040F411
:101990001835E9F01F3609F07BCF28E030E00CC0A5
:1019A000153739F0183709F073CF046220E130E0C1
:1019B00003C00F7E2AE030E0F30107FF0CC0619105
:1019C0007191819191913F0190CF0061EECF0460C0
:1019D00020E132E0F1CF619171913F0190E080E030
:1019E00084CF8FEF9FEF57CF20FD09C0FC0123FD6F
:1019F00005C022FF02C07383628351834083089530
:101A000033E044FD10C034E046FD0DC0DB01FC01B5
:101A1000AA0FBB1FEE1FFF1F1094D1F76A0F7B1F89
:101A20008E1F9F1F31E0660F771F881F991F31504F
:101A3000D1F7620F711D811D911D08950F931F93A2
:101A4000CF93DF938C01C801E3D1EC0197FD06C071
:101A5000C3D1892BC1F7B801CE0144D2CE01DF91A9
:101A6000CF911F910F9108958F929F92AF92BF9245
:101A7000EF92FF920F931F93CF93DF938C01D62F9A
:101A80007A01B22EC5D19C0133272B32310529F0C2
:101A90002D323105A1F46894B7F8D15061F480E09B
:101AA000DF91CF911F910F91FF90EF90BF90AF907A
:101AB0009F908F900895C801ABD197FDF0CFCB2DAB
:101AC000CD7F2B2D2073E9F48033D9F4AA24AA9476
:101AD000AD0E79F0C8019CD197FD0BC0282F2F7D4A
:101AE000283559F4C264D25021F0C80191D197FF32
:101AF00008C0812C912C54011AC0B6FE29C0C260C6
:101B0000DA2D812C912C540120ED280F283018F16A
:101B1000C4FD09C02A30F8F0C6FF05C02F7D3FEE96
:101B2000320F3630B8F0B801DDD1C1FFB8CFC7FFF2
:101B300008C0B094A09490948094811C911CA11C26
:101B4000B11C2C2FB501A401C7014EDF81E0A8CF45
:101B5000C261D6CF27504C2FC501B40151DF4B01D4
:101B60005C01C260D15019F3C80152D197FFCCCFAC
:101B7000DECFB0E0A0E0EEEBFDE0FBC05C01EB01EE
:101B8000742E652EFC0117821682C12CF501F3809C
:101B9000FE01F3FC8591F3FE8191182FEF0188235C
:101BA000C9F090E019D1892B19F0C50147DFEECFBC
:101BB000153241F4FE01F3FC1591F3FE1191EF0192
:101BC000153259F4C50124D197FD96C01817F1F2CA
:101BD000B50188D18C2D90E093C000E01A3231F429
:101BE000F3FC1591F3FE1191EF0101E0D12C20EDF2
:101BF000210F2A3038F101FF34C0DD2059F31836A7
:101C000099F11C3609F43AC0112321F3612F70E0D9
:101C10008FE790E0E9D0892BE9F2F12CE12C00FD6F
:101C200006C0E72DF62DE190F1907E2E6F2E1E3628
:101C300069F5F5014681578170E060E0202FC7010A
:101C4000D3DEA4CF02606D2D70E090E080E040E232
:101C5000D7DED62EFE01F3FC1591F3FE1191EF01B4
:101C6000C6CFDD24DA94CBCFFE01F3FC1591F3FE51
:101C70001191EF01183609F0C7CF08600460FE012A
:101C8000F3FC1591F3FE1191EF01BECF1336A9F4C9
:101C900001FD02C0DD24D394C501BAD097FD2CC04C
:101CA000E114F10419F0F70181937F01DA94D11066
:101CB000F3CF00FD6BCFC39469CFC501BFDE97FDA5
:101CC0001BC01F3609F43BC030F4143641F01936FE
:101CD00039F0006405C0133701F11537D1F7006200
:101CE000202FA7016D2DC501BFDE8111E2CFF501C7
:101CF0008381807309F46ECF8FEF9FEFC1106ACF9D
:101D0000CDB7DEB7EEE051C0E114F10419F0F701F0
:101D100081927F01DA94DD2059F0C50179D04C0120
:101D200097FD06C059D0892B79F3B501C401DAD0EB
:101D3000E114F10409F4BDCFF7011082BACF0061BC
:101D4000CFCFAA1BBB1B51E107C0AA1FBB1FA61701
:101D5000B70710F0A61BB70B881F991F5A95A9F754
:101D600080959095BC01CD0108952F923F924F929E
:101D70005F926F927F928F929F92AF92BF92CF921B
:101D8000DF92EF92FF920F931F93CF93DF93CDB724
:101D9000DEB7CA1BDB0B0FB6F894DEBF0FBECDBF9C
:101DA00009942A88398848885F846E847D848C846D
:101DB0009B84AA84B984C884DF80EE80FD800C8176
:101DC0001B81AA81B981CE0FD11D0FB6F894DEBF59
:101DD0000FBECDBFED0108959111FAC0803219F008
:101DE00089508550D0F70895FC010590061621F022
:101DF0000020D9F7C00108953197CF010895FB0164
:101E0000DC0102C001900D9241505040D8F7089576
:101E1000CF93DF93EC012B8120FF2FC026FF0CC056
:101E20002F7B2B838E819F8101969F838E838A8156
:101E300090E0DF91CF91089522FF14C0E881F981ED
:101E40008081082E000C990B20620097A9F0319632
:101E5000F983E8832E813F812F5F3F4F3F832E839D
:101E60009927E7CFEA85FB85099597FFF3CF2B816B
:101E7000019631F080E2282B2B838FEF9FEFD9CF93
:101E800080E1F9CF0F931F93CF93DF93182F092F82
:101E9000EB018B8181FD09C01FEF0FEF812F902F88
:101EA000DF91CF911F910F91089582FF14C02E8171
:101EB0003F818C819D81281739073CF4E881F981A5
:101EC000CF0101969983888310838E819F8101962B
:101ED0009F838E83E3CFE885F985812F0995892B30
:101EE000A1F3DACFFB01238120FF11C026FD0FC033
:101EF0008F3F980771F082832F7D20642383268192
:101F000037812150310937832683992708958FEF30
:101F10009FEF0895FA01AA27283051F1203181F16D
:101F2000E8946F936E7F6E5F7F4F8F4F9F4FAF4FE1
:101F3000B1E03ED0B4E03CD0670F781F891F9A1FF4
:101F4000A11D680F791F8A1F911DA11D6A0F711DA8
:101F5000811D911DA11D20D009F468943F912AE0B4
:101F6000269F11243019305D3193DEF6CF0108959C
:101F7000462F4770405D4193B3E00FD0C9F7F6CFCD
:101F8000462F4F70405D4A3318F0495D31FD405295
:101F9000419302D0A9F7EACFB4E0A695979587952B
:101FA00077956795BA95C9F700976105710508950A
:101FB0009B01AC010A2E06945795479537952795B6
:101FC000BA95C9F7620F731F841F951FA01D08954E
:0A1FD000992788270895F894FFCFA1
:101FDA00000100540B0769646C65000601C1022AFE
:101FEA000301630000006E6F6E616D65006D6169CB
:101FFA006E0016002802021C040507090B000D0ECC
:10200A00000000000020081A082C0826082A0824C4
:10201A00081E0818083008FF20FF00FF02726561D9
:10202A00642D686967682D7072696F726974792D99
:10203A0073656E736F72730048696768210D0A00D1
:10204A004C6F77210D0A00205374617274696E67B0
:10205A0020477561726469616E20416E67656C2EF6
:10206A002E2E0D0A004275732053746F70706564CA
:10207A00202D20446F6F72206973204F70656E0D9A
:02208A000A004A
:00000001FF
