:10000000AEC00000C9C00000C7C00000C5C00000ED
:10001000C3C00000C1C00000BFC00000BDC00000E0
:10002000BBC00000B9C00000B7C000000C94760A45
:10003000B3C00000B1C00000AFC00000ADC0000000
:10004000ABC00000A9C000000C94BF0A0C94000BC8
:10005000A3C000000C9400099FC000009DC00000D8
:100060009BC0000099C00000950E3A0D3A0D3A0D64
:100070003A0D950E3A0D3A0D3A0D3A0D3A0D510ED4
:100080003A0D3A0D3A0D3A0D3A0D310E3A0D3A0D40
:10009000CD0E3A0D3A0D3A0D3A0D3A0D3A0D3A0D94
:1000A0003A0D3A0D3A0D0E0E950E3A0D750D3A0DAC
:1000B0003A0D950E3A0D3A0D3A0D3A0D3A0D510E94
:1000C0003A0D3A0D3A0D420D3A0D310E3A0D3A0DF8
:1000D000CD0E5F0EA70CA70CA70CA70C5F0EA70CEC
:1000E000A70CA70CA70CA70C520EA70CA70CA70CCB
:1000F000A70CA70C320EA70CA70CB00EA70CA70CD0
:10010000A70CA70CA70CA70CA70CA70CA70CA70C57
:100110000E0E5F0EA70C750DA70CA70C5F0EA70C9B
:10012000A70CA70CA70CA70C520EA70CA70CA70C8A
:10013000420DA70C320EA70CA70CB00E4546476522
:10014000666700202B2D2E30313233343536373868
:100150003968006364696E6F707375785800112494
:100160001FBECFEFD8E0DEBFCDBF11E0A0E0B1E011
:10017000E0E5FBE202C005900D92AC38B107D9F77B
:1001800023E0ACE8B1E001C01D92AB39B207E1F762
:100190000E94120F0C94A61533CFFFCFEDD18ED055
:1001A00098D4CED440E86DE171E08BE193E0FBD2CE
:1001B000FC019093100380930F0391E09587909337
:1001C0003B0378948BE091E071C3CF92DF92EF9282
:1001D000FF920F931F93CF93DF93C0911103D091A0
:1001E00012034C815D8101E113E060918400709104
:1001F000850020911703309118037B01E21AF30A5E
:10020000E416F50690F42CC088859985F6010995C9
:10021000C0911103D09112034C815D81E416F50663
:1002200020F32091170330911803240F351F3093CA
:10023000180320931703E41AF50AA881B9811396CD
:100240001C930E931297B0931203A0931103CE80C8
:10025000DF801F821E82A151B340B1F6C4D4D4CF37
:10026000F3E0C131DF0709F12E0D3F1D3093180374
:10027000209317038C819D818E199F099D838C8308
:10028000261B370B820F931F8230910558F0860F83
:10029000971FDF91CF911F910F91FF90EF90DF900B
:1002A000CF90A4C482E090E0F2CFDF91CF911F9174
:1002B0000F91FF90EF90DF90CF900895E4E0F3E08E
:1002C00081E193E096878587908B87878FEF9FEFFB
:1002D000928B818B148A138A0895EF92FF920F9369
:1002E0001F93CF93DF937C01DC0119963C932E93EF
:1002F000189717965C934E9316972091840030912F
:1003000085006230710508F459C000911103109105
:100310001203B3E001311B0709F45AC0809117039F
:1003200090911803281B390BEB01C20FD31FD80182
:10033000C217D307E0F114962D913C911597C2177F
:10034000D30748F43EC0C21BD30BD8010D911C91BA
:10035000F801248135812C173D07A8F3D7010D93AF
:100360001C93D8011296ED91FC911397D701139627
:10037000FC93EE931297F182E082F801F382E2821D
:100380001596DC93CE931497848195818C1B9D0BDD
:10039000958384838FEF9FEF9093160380931503CB
:1003A000DF91CF911F910F91FF90EF9008951496D8
:1003B0008D919C911597C81BD90BC8CF62E070E056
:1003C000A4CF8C0F9D1F12D4F80124813581C3CF97
:1003D0003093180320931703F0921203E092110355
:1003E000F0921403E0921303F70111830083138347
:1003F000028375836483CB01820F931FDF91CF91BA
:100400001F910F91FF90EF90E5C3CF93DF93FC0115
:10041000A0911103B0911203A817B90709F1C28185
:10042000D3818081918199838883A081B181139642
:10043000DC93CE9312971782168283E0A131B8071E
:1004400061F014962D913C91159784819581820FCE
:10045000931F15969C938E931497DF91CF910895D7
:10046000ED91FC911197F0931203E093110381E158
:1004700093E09383828317961C921E921697E81737
:10048000F90729F114962D913C9115978481958156
:10049000820F931F9583848320918400309185007F
:1004A0004091170350911803241B350B2817390767
:1004B000A0F6BC01621B730B6230710528F0840F3B
:1004C000951FDF91CF9192C3C9010296F8CFDF91BA
:1004D000CF9189C3CF93DF93DC011D968C911D973B
:1004E000843099F170F5882349F1833031F45096C6
:1004F000ED91FC915197118210828FEF9FEF5196F1
:100500009C938E9350971D961C921D9714962C9138
:100510001497E4E0F3E00190F081E02D94819217CC
:10052000D0F71196FC93EE93C281D3811396DC939E
:10053000CE931297B983A883B383A283DF91CF911F
:100540000895853089F08730C1F61296ED91FC91BF
:1005500013978D919C91119791838083CD91DC911C
:100560001197FB83EA83C9CF5096ED91FC91519787
:1005700084818F5F8483E9CFE4E0F3E0F183E0835B
:10058000F383E2831482F087E783F287E18708959B
:10059000CF93DF93DC011D961C921D9714962C912E
:1005A0001497E4E0F3E00190F081E02D948192173C
:1005B000D0F71196FC93EE93C281D3811396DC930E
:1005C000CE931297B983A883B383A283CD01DF9121
:1005D000CF910895CF93DF93E4E0F3E063857485D2
:1005E000DB011D968C9380819181EC01A881B981FA
:1005F000B183A0831396FC93EE931297948783871D
:1006000021E02D87AAD2DF91CF9108951F93CF9338
:10061000DF93CDB7DEB72A970FB6F894DEBF0FBED3
:10062000CDBF182F6F3F8FEF780711F120910F0387
:10063000309110034AE652E0CE0101964EDE812F42
:10064000C9DF8F819885892B19F0CE010196DDDEF7
:10065000E0910F03F0911003808991892A960FB6DB
:10066000F894DEBF0FBECDBFDF91CF911F910895EB
:10067000812FB0DFEDCFCF93DF93DC01C0910F036B
:10068000D091100351967C936E93509714962C91B1
:1006900014978C818217D8F01D961C921D97E4E068
:1006A000F3E00190F081E02D94819217D0F711963C
:1006B000FC93EE93C281D3811396DC93CE93129771
:1006C000B983A883B383A283DF91CF9108951D8658
:1006D000E4E0F3E00190F081E02D94819817D0F7E9
:1006E000CD01F983E883A281B381BB83AA83CD9333
:1006F000DC93D383C2839093100380930F0321E094
:10070000FC012587BE0129D2DF91CF910895A091E8
:100710000403B0910503E0910F03F091100381E011
:1007200014962C919481921708F080E00895CF934D
:10073000DF93A0910F03B0911003409104035091F7
:100740000503EA01E881F981F0930503E0930403CE
:1007500084E093E0938382835093100340930F03CC
:1007600081E08D871D961C921D9714962C911497ED
:1007700003C00190F081E02D94812917D0F31196E8
:10078000FC93EE938281938113969C938E931297A0
:10079000EC01B983A883B383A283BD01CA01DDD173
:1007A000DF91CF910895CF93DF93FC01448382E0E2
:1007B00085871686438F128E118E108E81E0878773
:1007C00074876387A4E0B3E0B087A7831996CD91BF
:1007D000DC911A97D287C187F887EF831A96FC932A
:1007E000EE931997CF014296938B828B0296958B4D
:1007F000848B978B868BCF01DF91CF910895CF9318
:10080000DF93EC014C815D81FA017C97CA01C197AD
:10081000968385832F81DC0152962C9352972885ED
:1008200051962C935197298550962C9350972A8551
:100830001F962C931F972CED35E053963C935397BE
:1008400054962C938E8128813981848392E09587F8
:100850001686838F128E118E108E81E087873487E3
:100860002387C4E0D3E0D087C78389859A859287A0
:100870008187DC011896FC93EE931797FA87E98736
:10088000EA012A97D983C883DA0118970B2E1196AB
:100890000C921197AC930A2E1B2E13961C920E925B
:1008A00011241297CF01DF91CF910895CF93DF9359
:1008B000F894A5DFEC0160E070E0DDDE7894CE0115
:1008C000DF91CF9108950F931F93CF93DF93F89407
:1008D0006C517109EC01C60FD71FFE017597FE839D
:1008E000ED83228B318B008B17878CED95E0938BFA
:1008F000848B4C8382E08D871E864B8F1A8E198ED7
:10090000188E81E08F8786E191E09C878B87E4E0F9
:10091000F3E0F887EF83A185B285BA87A987189697
:10092000DC93CE931797D287C187CE0142969B8BDB
:100930008A8B02969D8B8C8B9F8B8E8B60E070E0F8
:10094000CE0199DE7894CE01DF91CF911F910F9166
:1009500008950F931F93CF93DF93C0910F03D0910E
:100960001003998B888B8E010E5E1F4F8A899B899D
:100970000817190759F0FC01208131813B8B2A8B24
:1009800007DE8A899B8980179107A9F78F858111D6
:100990000CC0E985FA858F81988590878783AF8120
:1009A000B8851A96FC93EE9319978FE0DF91CF915B
:1009B0001F910F910FCEF894CCCFF894BC0188E032
:1009C00025DE78940895DC01ED91FC911197309724
:1009D00031F01D921C92718B608BCF01D9CD08959F
:1009E000CF93DF936115710599F0E0910F03F091BA
:1009F000100391838083EC01AA81BB81B383A2831E
:100A0000ED93FC93FB83EA8384E0DF91CF91FECDED
:100A10008FEF9FEFDF91CF910895CF93DF93FC018C
:100A200080819181E817F90771F0EC01A881B98103
:100A3000B183A0831396FC93EE931297798B688B06
:100A4000DF91CF91A5CDDF91CF910895FC019183E6
:100A5000808393838283158214820895FC01908D94
:100A6000692B608F85858A3059F08B3009F00895A5
:100A7000808968238613FBCF118A108ACF0188CD25
:100A800080896823C9F70895EF92FF921F93CF934F
:100A9000DF937C01162FFC01C081D1818C179D074B
:100AA00091F09D81912B9D83112319F02E8192232A
:100AB00021F06C818A819B81D1DF0990D881C02D82
:100AC000EC16FD0671F7DF91CF911F91FF90EF902B
:100AD0000895E7E3F3E08CE891E0918380838CE074
:100AE00092E0938382830895F894FB013197719586
:100AF000619571092091370330913803420F531FDC
:100B00004E0F5F1F462357238E0F9F1F68237923A5
:100B1000CA01860F971F6091390370913A036817D5
:100B2000790750F08217930738F090933803809339
:100B30003703CA017894089580E090E0789408958E
:100B4000ECE0F2E084E795E09183808313821282E7
:100B50001582148282E192E079CF2F923F924F92D8
:100B60005F926F927F928F929F92AF92BF92CF923D
:100B7000DF92EF92FF920F931F93CF93DF93FB01CE
:100B80000DB605820EB60682FC0105800DBE0680FC
:100B90000EBEDF91CF911F910F91FF90EF90DF90EC
:100BA000CF90BF90AF909F908F907F906F905F900D
:100BB0004F903F902F9008957894C201F1010995CC
:100BC000FACE1DD38AE491E083D45ED2A3D287D536
:100BD00000C0B8C4909389008093880082E086BBEF
:100BE00080936F00089510926F000895909389008C
:100BF000809388000895AF92BF92CF92DF92EF92D8
:100C0000FF920F931F93CF93DF93EC016B018A0147
:100C10008C819D818417950710F40C811D816C8552
:100C20007D85E884F984E61AF70A0E151F0598F108
:100C3000E016F106D0F0A801C6010E94AD148E8125
:100C40009F819D878C878C819D81801B910B9D83CB
:100C50008C83C801DF91CF911F910F91FF90EF908E
:100C6000DF90CF90BF90AF900895A701C6010E947A
:100C7000AD145801AE18BF086E817F81A501C60171
:100C80008E0D9F1D0E94AD148E819F81A80EB91EEE
:100C9000BD86AC86D8CFA801C6010E94AD148C8554
:100CA0009D85800F911F9D878C87CDCFAF92BF927E
:100CB000CF92DF92EF92FF920F931F93CF93DF9328
:100CC000EC016B018A018C819D818417950710F4DA
:100CD0000C811D818A859B85E884F984E81AF90ACC
:100CE0000E151F0598F1E016F106D0F0A801B60127
:100CF0000E94AD148E819F819B878A878C819D8104
:100D0000801B910B9D838C83C801DF91CF911F9134
:100D10000F91FF90EF90DF90CF90BF90AF9008952C
:100D2000A701B6010E94AD145801AE18BF08B60164
:100D30006E0D7F1DA5018E819F810E94AD148E8155
:100D40009F81A80EB91EBB86AA86D8CFA801B6017E
:100D50000E94AD148A859B85800F911F9B878A878F
:100D6000CDCF0F931F93FC01918380839383828364
:100D70001582148277836683758764877387628799
:100D8000640F751F7187608737872687118B008BEB
:100D90001F910F910895FC01A285B38584859585E7
:100DA000A817B907E1F08481958101969583848322
:100DB000CD010196938782876C9322853385808548
:100DC00091852817390720F086819781938782873C
:100DD000CF0160E070E021DE80E090E00895848142
:100DE0009581892B01F38FEF9FEF08950F931F9348
:100DF000CF93DF93EC018B01F89405C0B801CE01CD
:100E0000EFDD97FD27C08C819D81892BB9F38C8103
:100E10009D8101979D838C83EC85FD85CF01019693
:100E20009D878C871081288539858217930720F04C
:100E30008E819F819D878C87EE85FF85309711F08D
:100E4000CE0109957894812F90E0DF91CF911F9189
:100E50000F9108957894DF91CF911F910F9108958C
:100E60006F927F928F929F92AF92BF92CF92DF92BA
:100E7000EF92FF920F931F93CF93DF936C018B013F
:100E80007A014901FC01A684B784F894C0E0D0E05F
:100E9000452B81F41BC0A114B10419F0C601F50162
:100EA00009957894C60DD71D060D171DF894CE151B
:100EB000DF0560F4A701B801C6019DDE3C01892B66
:100EC00051F7B401C6018CDD892B89F37894CE01EA
:100ED000DF91CF911F910F91FF90EF90DF90CF9016
:100EE000BF90AF909F908F907F906F9008950F93D9
:100EF0001F93FC0191838083938382835583448372
:100F0000778366837587648773876287460F571F69
:100F10005187408737872687118B008B1F910F9150
:100F20000895FF920F931F93CF93DF93EC01F62E5A
:100F30008A01F89405C0B801CE0152DD97FD2AC0A0
:100F40008C819D81892BB9F38C819D8101979D8333
:100F50008C83EA85FB85CF0101969B878A87F08287
:100F60002A853B85888599852817390720F08E8149
:100F70009F819B878A87EE85FF85309711F0CE0190
:100F80000995789480E090E0DF91CF911F910F91C7
:100F9000FF9008957894DF91CF911F910F91FF906A
:100FA0000895CF93FC01A485B585828593858A1722
:100FB0009B07E1F084819581019695838483CD011F
:100FC000019695878487CC91208531858217930778
:100FD00040F4CF0160E070E020DD8C2F90E0CF91F5
:100FE00008958681978195878487F3CF8481958141
:100FF000892B01F38FEF9FEFF2CF6F927F928F9249
:101000009F92AF92BF92CF92DF92EF92FF920F9397
:101010001F93CF93DF936C018B017A014901FC018F
:10102000A684B784F894C0E0D0E0452B81F41BC0BF
:10103000A114B10419F0C601F50109957894C60D03
:10104000D71D060D171DF894CE15DF0560F4A70116
:10105000B801C6012BDE3C01892B51F7B401C60152
:10106000BFDC892B89F37894CE01DF91CF911F915A
:101070000F91FF90EF90DF90CF90BF90AF909F9037
:101080008F907F906F900895DAC1FC0181E080839A
:1010900012821182148213821682158210861782A0
:1010A00012861186CF010B96D1CCCF93DF93EC0142
:1010B000F8947A836983CCD182E088837894DF9135
:1010C000CF910895F894FC0154834383368325839C
:1010D0007087678323E02083D4D17894089580E0DB
:1010E00090E008950596BCCE2FEF3FEF0596B8CE61
:1010F000479683CF2FEF3FEF47967FCF059676CE6B
:101100006FEF7FEF059672CE47960BCF4FEF5FEFF5
:10111000479607CFACC2EF92FF920F931F93CF93E6
:10112000DF93EC019B017A01FC0183E391E0819361
:101130009193FB83EA8381E08C83BE01675D7F4FDF
:101140008E0140E150E0CE0105960BDEBE01675CEA
:101150007F4F970140E150E0CE014796C8DEDF9116
:10116000CF911F910F91FF90EF900895CF93DF9350
:10117000EC01F89483D282E08C837894DF91CF9154
:1011800008951F93CF93DF93EC01162F89859A85DD
:10119000892B51F0612FCE010596FDDD97FD0EC024
:1011A000DF91CF911F91089564E0CE0102966CDC2F
:1011B000612FCE010596EFDD97FFF2CF60E0CE0103
:1011C0000296DF91CF911F915FCC0F931F93CF9326
:1011D000DF938C014796E5DEEC0197FD06C0CE015A
:1011E000DF91CF911F910F91089568E0C801029699
:1011F0004BDCCE01DF91CF911F910F91089508959F
:101200001F920F920FB60F921124AF92BF92CF92FE
:10121000DF92EF92FF920F931F932F933F934F9381
:101220005F936F937F938F939F93AF93BF93CF936E
:10123000DF93EF93FF9381E080933B0380917800ED
:101240004091790020913F0330914003E0914F039A
:10125000F0915003EE0FFF1FE20FF31F90E0942B6D
:101260009183808300914F03109150030F5F1F4FB4
:101270001093500300934F03A0904103B09042039A
:10128000E0914303F09144036F01618172816A9D93
:1012900070016B9DF00C7A9DF00C1124C8010E9426
:1012A0000B14EC018081882309F448C0209739F49D
:1012B000A501569547954617570709F49CC00E158A
:1012C0001F0509F46BC0F6019581992359F020E0C0
:1012D00090FF04C0CC2309F458C0C15096952F5FED
:1012E0009111F6CF27E080917C00887F282B2093F6
:1012F0007C0080917A00806480937A0010923B0396
:1013000006DA811114DAFF91EF91DF91CF91BF914D
:10131000AF919F918F917F916F915F914F913F918D
:101320002F911F910F91FF90EF90DF90CF90BF9082
:10133000AF900F900FBE0F901F9018950E151F05C0
:1013400009F0C1CF80917A008F7B80937A0003806F
:10135000F481E02D309709F446C084E080933C038B
:10136000409141035091420360913F0370914003CB
:101370008CE393E0099580913C038430A1F160E017
:1013800070E085E493E01FDBB9CF2770ACCFE0912C
:101390004303F091440380818823A1F223813481A7
:1013A0002115310509F4AACF409141035091420320
:1013B00042305105D8F15695479561817281660F8B
:1013C000771F649FC001659F900D749F900D11243D
:1013D00060913F0370914003680F791F8CE393E0A5
:1013E000F90109958BCF82E080933C03109244036E
:1013F00010924303C4CF0380F481E02D309789F02D
:10140000B9018CE393E0099580914F0390915003CB
:101410008E159F0509F4BBCFC0904303D0904403C1
:1014200052CF0E151F0509F04ECF68CF60913F03D4
:10143000709140038CE393E0F90109955FCF8CE351
:1014400093E023DE8FE080937A0010927C00089571
:10145000DC012C91213079F0DC011196ED91FC91A9
:101460001297309739F080818295880F880F807CA1
:1014700080937C00089520917A00206820937A0060
:10148000EBCFDC0154961C921E9253971796ED9168
:10149000FC9118978581882351F080FD17C090E05A
:1014A00002C080FD11C086959F5F8111FACF97E041
:1014B00080917C00887F982B90937C0080917A00AB
:1014C000806480937A0008959770F2CF90E0F0CF17
:1014D000FC01808185B9818184B9828188B9838149
:1014E00087B984818BB985818AB908951F920F923B
:1014F0000FB60F9211242F933F934F935F936F93E7
:101500007F938F939F93AF93BF93EF93FF9381E06C
:1015100080933B030E94E50010923B03F8D88111B1
:1015200006D9FF91EF91BF91AF919F918F917F91DC
:101530006F915F914F913F912F910F900FBE0F9040
:101540001F90189510928000E1E8F0E088E0808319
:1015500010928200109289001092880010928500EB
:101560001092840082E086BB10926F0085E0808339
:101570000895E1ECF0E080818062808308951F92FD
:101580000F920FB60F9211242F933F934F935F93B7
:101590006F937F938F939F93AF93BF93EF93FF933B
:1015A00081E080933B038091C000982F9C71D9F417
:1015B0006091C60081E593E0E4DD10923B03A7D87B
:1015C0008111B5D8FF91EF91BF91AF919F918F910C
:1015D0007F916F915F914F913F912F910F900FBE2F
:1015E0000F901F90189583FD09C060E082FD606236
:1015F00084FD606483E593E047DADACF60E8F6CFF4
:101600001F920F920FB60F9211242F933F934F9377
:101610005F936F937F938F939F93AF93BF93EF935A
:10162000FF9381E080933B0381E593E0CEDD97FD5E
:1016300018C08093C60010923B0369D8811177D8F7
:10164000FF91EF91BF91AF919F918F917F916F919A
:101650005F914F913F912F910F900FBE0F901F9070
:1016600018958091C1008F7D8093C100E4CF49EB34
:101670005AE060E070E081E593E04DCD61157105C1
:1016800019F18155934009F00895FB018081809301
:10169000C40081818F708093C50082E08093C00078
:1016A00088E98093C10082818130B9F0A0F0823056
:1016B00071F0843071F48091C10084608093C10026
:1016C00086E08093C200089567E471E0DACF84E099
:1016D000F8CF86E0F6CF80E0F4CF82E0F2CF109230
:1016E00069001DBA08952F923F924F925F926F92B8
:1016F0007F928F929F92AF92BF92CF92DF92EF92A2
:10170000FF920F931F93CF93DF9300D01F92CDB71B
:10171000DEB74C01242E5B83B62EA72EE114F10414
:101720000105110509F45DC067017801C4010B963C
:101730009A8389832901612C712C8C01622D7B8114
:101740008B2D9A2DA30192010E944114FB01F0966A
:10175000EA33F1050CF037963E2ED801EE938D0159
:10176000622D7B818B2D9A2DA30192010E94411441
:10177000222E3B83B42EA52EC701B601A3019201F0
:101780000E94411469017A01232B242B252BB1F6E9
:10179000F40198012F5F3F4F89819A81801B910B43
:1017A000880D991D03C0D9013D909D013192E81724
:1017B000F907C9F7CF010F900F900F90DF91CF91EC
:1017C0001F910F91FF90EF90DF90CF90BF90AF905F
:1017D0009F908F907F906F905F904F903F902F9051
:1017E0000895C42EDB80E62EF72EA0CF2F923F92D5
:1017F0004F925F926F927F928F929F92AF92BF9221
:10180000CF92DF92EF92FF920F931F93CF93DF93CC
:10181000CDB7DEB7E3970FB6F894DEBF0FBECDBFEE
:101820001C015B014A011D8E1C8E9E012E5F3F4FE5
:10183000398F288FCE0101969B8F8A8F281B390BF9
:101840003BA32AA3215031093DA32CA385010F5F9F
:101850001F4FD5016C916623B9F0653281F1D1013A
:10186000ED91FC910680F781E02DC1010995EC8D89
:10187000FD8D3196FD8FEC8F580185010F5F1F4F55
:10188000D5016C916111E9CF8C8D9D8DE3960FB6DA
:10189000F894DEBF0FBECDBFDF91CF911F910F91A6
:1018A000FF90EF90DF90CF90BF90AF909F908F9080
:1018B0007F906F905F904F903F902F900895D5014B
:1018C00011968C9111978D3209F4C0C1612C80332F
:1018D00009F4B5C190E2792EA8014F5F5F4FC12C8A
:1018E000D12CD40112C09C9112969601220F331F65
:1018F000CC0CDD1CCC0CDD1CCC0CDD1CC20ED31EB4
:10190000C90ED11C4F5F5F4F8081FA0190ED980F97
:101910009A3058F38A3239F35A014D0100E010E051
:101920008E3209F485C0982F9F7D9C3409F492C0B3
:1019300031E09FEB980F9A3108F030E0482F50E0EB
:10194000FA01E454F109E533F10508F487C189830C
:101950008AA19BA14CA05DA0FE0131967F01C81A0F
:10196000D90AD7FCBFC0611087C0002711270C1906
:101970001D0909F4BAC1D7018C918D3209F4BDC19A
:101980006801D101ED91FC910680F781E02D672D72
:10199000C1010995BFEFCB1ADB0A99F72C8D3D8D5C
:1019A000201B310B3D8F2C8F57FC50CF87017201CC
:1019B000F80161918F01D101ED91FC910680F781D1
:1019C000E02DC1010995B1E0EB1AF10888F78C8D83
:1019D0009D8D019657FC8EC19C01240D351D3D8FB8
:1019E0002C8FC114D10409F431CF8601D101ED91BE
:1019F000FC910680F781E02D672DC101099501500A
:101A00001109A1F7EC8DFD8DEC0DFD1DFD8FEC8F07
:101A10001DCF9C9112969801220F331F000F111FAA
:101A2000000F111F000F111F020F131F090F111DAF
:101A3000FFEFAF1ABF0AF5013197808190ED980F43
:101A40009A3048F38A3229F34D01982F9F7D9C34B8
:101A500009F06ECFD5012C91222309F478CF3FEF06
:101A6000A31AB30A822F90E0FC01E454F109E53394
:101A7000F10528F0822F6BCF57FCB3CF97CFEC5CEA
:101A8000FF4F1BC794012E5F3F4FD401ED90FC9098
:101A9000E114F10409F48CC1F701808101151105ED
:101AA00009F459C1882309F488C101501109C701FB
:101AB0000196A90104C00150110908F454C1FC01A8
:101AC000019630813111F7CFCF018E199F092C017A
:101AD000F1E04F1A51084A0150E2752EC81AD90A8E
:101AE000D7FE41CFC12CD12C3ECFF4013496FFA7B5
:101AF000EEA7D4018D919D910D90BC91A02D8E8F5C
:101B00009F8FA8A3B9A320E030E0A901BC01CD01BB
:101B100038D587FD34C19A8C8B8C012E000C220B9A
:101B2000330B015011092109310909301105210533
:101B3000310520F008E010E020E030E0000F111F38
:101B4000000F111FF801E95AFE4F80819181A28197
:101B5000B3818EA39FA3A8A7B9A76E8D7F8D88A1FF
:101B600099A113D56AA77BA78CA79DA7E12CF12C7F
:101B700087012AE030E0AB01BC01892D982DB3DD4F
:101B80004C018EE2D4018D934D016AA57BA58CA5F5
:101B90009DA52ED59B01AC016E8D7F8D88A199A14D
:101BA0008BD46E8F7F8F88A399A36EA17FA188A508
:101BB00099A51CD59B01AC016E8D7F8D88A199A143
:101BC000C7D57B018C016EA17FA188A599A52AE0CC
:101BD00030E040E050E033D6C801B70128AB39AB64
:101BE0004AAB5BABD2D428A939A94AA95BA9790130
:101BF0008A012AE030E0AB01BC01C40174DDEA8D4A
:101C0000FB8D8E1B9F0B2C01F1E04F1A51088EA407
:101C10009FA49E012F5F3F4F7901A1CED4018C91EB
:101C200089838AA19BA14CA05DA0F40132964F014B
:101C300070E2772E9E012F5F3F4F790190CEF80121
:101C400081810F5F1F4F20E3722E46CE85010E5F0C
:101C50001F4F12968C916624639439CEE759FF4F3B
:101C60002CC631E08AE090E0311120C0D4014D91C2
:101C70005C9160E070E0F40132964F01E12CF12CB0
:101C800087019C01CE0101962EDD2A8D3B8D821BA2
:101C9000930B2C0131E0431A5108DE0111967D01AE
:101CA0005ECE31E088E090E0332301F3D4014D9122
:101CB0005D916D917C91F40134964F01DFCF31112C
:101CC00034C0D4014D915C91052E000C660B770B4E
:101CD000F40132964F0177FD32C08A8D9B8DE12C45
:101CE000F12C87012AE030E0CFCFC12CD12C57FE58
:101CF0005DCEACCD412C512C6FCEB0E37B1240CEEB
:101D0000EFEFEE1AFE0AD101ED91FC910680F7810A
:101D1000E02D6DE2C1010995EC8DFD8D3196FD8FB1
:101D2000EC8FF1E04F1A51082BCED4014D915D910B
:101D30006D917C91F40134964F0177FFCECF8DE207
:101D4000898370956095509541955F4F6F4F7F4F98
:101D5000888D998DC4CF882381F10EEF1FE7A7CE20
:101D600080E190E081CF9A01CF018E199F092C016B
:101D700041E0441A5108490140E2742EF0CD8DE251
:101D800089838E8D9F8DA8A1B9A1B0588E8F9F8F0A
:101D9000A8A3B9A3988C898CC0CE80E190E0D4012F
:101DA0004D915D916D917C91F40134964F0166CF18
:101DB00060E5E62E61E0F62E6FCED7FC0CC049013F
:101DC000611006C044244A94542C90E2792ECDCD63
:101DD00020E2722E06CEC12CD12CF1CFCF93DF930F
:101DE000CDB7DEB7AE01475F5F4F6F8178858D81DC
:101DF0009E81FCDCDF91CF91089581E080939A036E
:101E00000895E0910F03F09110038BE791E0948720
:101E10008387C0E285B18C2785B98BE196E00E946B
:101E2000DD04F8CFCF93DF93CDB7DEB761970FB660
:101E3000F894DEBF0FBECDBF0E94E1050E94CE0028
:101E400060E070E081E593E091D981E0898B86E0E4
:101E5000E0E0F1E0DE011B9601900D928A95E1F73A
:101E6000BE016F5E7F4F8CE393E01FD900E010E06E
:101E700021E03FE040E861E870E08AE192E00E9402
:101E80006304CE010B965C0183E8C82E81E0D82E56
:101E900091E5E92E93E0F92E25E030E0AE014F5FA9
:101EA0005F4FB5018CE393E00DD980919A038823AD
:101EB000E1F310929A038E010F5F1F4FF8016191B9
:101EC00071918F0180E090E091D323EC31EC43E4F9
:101ED0005EE33ED49F938F937F936F93DF92CF9275
:101EE000FF92EF927BDF84E89EE10E94DD040FB653
:101EF000F894DEBF0FBECDBF0A151B05F9F6CCCF97
:101F0000ACE0B0E0E5E8FFE0E2C46C015B017A011F
:101F1000FC0117821682838181FF04C1CE010196E4
:101F20004C01F6010381F50103FD159103FF1191A9
:101F30005F01112309F4F2C0153249F403FD159134
:101F400003FF11915F01153211F020E019C0B601B5
:101F5000812F90E049D537017301E3CF112309F4B4
:101F6000DDC0612F70E083E491E02C87EBD42C85F9
:101F7000892B49F0F50103FD159103FF11915F01D4
:101F800027FFECCF09C0133229F01C3609F0CDC071
:101F90002068F0CF20E1EECF022F112309F4BEC05C
:101FA000612F70E08CE391E02C87CCD42C85892BB9
:101FB00041F03701F4E06F0E711CB6018FE390E041
:101FC00011C0133639F0133779F0133509F5022FA4
:101FD00001600AC0370182E0680E711CB601F7018A
:101FE0008081918101D5B8CF3701F2E06F0E711C6D
:101FF000F701E080F180F70100FD859100FF8191FC
:102000007F01882309F4A8CFB60190E0EDD4F3CF87
:10201000143611F0193629F5370127FF09C0F4E00D
:102020006F0E711CF70160817181828193810AC0FA
:10203000F2E06F0E711CF70160817181072E000CB8
:10204000880B990B022F0F7E97FF08C09095809503
:10205000709561957F4F8F4F9F4F00642AE030E06D
:1020600033C0103799F040F41835B1F01F3609F03D
:1020700055C028E030E014C0153719F0183741F08A
:102080004DC0022F0F7E2AE030E00AC0022F00610F
:10209000046220E130E004C0022F046020E132E05D
:1020A000370107FF09C0F4E06F0E711CF701608172
:1020B00071818281938108C0F2E06F0E711CF7017B
:1020C0006081718180E090E0A401DFD4182F18199D
:1020D00006FF04C0B6018DE290E086D404FF13C071
:1020E000FE01E10FF11D8081803369F0B60180E3CC
:1020F00090E07AD402FF07C00072802F90E0B60112
:10210000885A9F4F71D41150F401E10FF11D808165
:10211000B60190E069D41111F6CF1ECFF601868189
:10212000978105C08FEF9FEF02C0022F39CF2C9609
:10213000EEE0E9C320FD09C0FC0123FD05C022FF3C
:1021400002C07383628351834083089544FD10C0AD
:1021500046FD10C0DB01FC01AA0FBB1FEE1FFF1FD5
:102160001094D1F76A0F7B1F8E1F9F1F31E003C0B1
:1021700033E001C034E0660F771F881F991F31508C
:10218000D1F7620F711D811D911D08950F931F934B
:10219000CF93DF938C01C801E9D3EC0197FD06C012
:1021A000C9D3892BC1F7B801CE0156D4CE01DF9136
:1021B000CF911F910F910895A1E0B0E0E1EEF0E121
:1021C00088C38C01C62E7A012983D0D3AC01552750
:1021D00029814B32510521F04D32510561F42068BF
:1021E000CA94C11002C080E06FC0C8012983BED369
:1021F000298197FDF8CF322F3D7FD32E322F3073B8
:1022000039F5803329F5BB24BA94BC0C09F449C0D4
:10221000C8012983ABD3298197FD43C0382F3F7D67
:10222000383561F48D2D8264D82ECA94CA94CC209E
:10223000C1F1C8019BD397FF0BC033C026FF04C078
:102240002D2D2260D22E03C03D2D3261D32ECB2CFA
:10225000812C912C540120ED280F283078F0D4FEE9
:1022600003C0B801F9D31AC02A3040F0D6FEF9CF26
:102270002F7D3FEE320F3630A0F727504D2DC50190
:10228000B40164DF4B015C018D2D8260D82ECA94AD
:10229000CC2051F0C8016AD397FFDDCFD1FC04C038
:1022A000A2CF812C912C5401D7FE08C0B094A094E9
:1022B00090948094811C911CA11CB11C2D2DB50102
:1022C000A401C70137DF81E02196ECE01EC3A1E045
:1022D000B0E0ECE6F1E1F9C27C012B015A01FC010E
:1022E00017821682812CF7017380F20173FC8591AD
:1022F00073FE8191382F2F01882309F4D5C090E017
:10230000398318D33981892B19F0C7013FDFEBCF0F
:10231000353241F4F20173FC359173FE31912F0196
:10232000353259F4C701398321D3398197FDBAC0B9
:102330003817C9F2B70190D3B7C03A3239F473FCF9
:10234000359173FE31912F0111E001C010E062015F
:1023500060E020ED230F2A3068F4126070E080E026
:1023600090E040E2F3DEF60173FC359173FE3191AB
:102370006F01EFCF962E032F260111FF03C06111CD
:1023800003C092C099249A94383619F03C3651F023
:1023900010C0F60173FC059173FE01912F01083600
:1023A00041F418601460F20173FC059173FE019111
:1023B0002F01002309F478C0602F70E083E591E0DD
:1023C000C1D2892B09F470C010FD07C0F501C0808F
:1023D000D180C50102965C0102C0C12CD12C0E3601
:1023E00049F4F7014681578160E070E0212FC60172
:1023F000A1DE79CF0336A1F411FD02C09924939494
:10240000C701B4D297FD4EC0C114D10429F0F60122
:102410008083C60101966C019A949110F1CF3EC061
:10242000C701B4DE97FD3EC00F3649F128F40436EB
:1024300021F1093639F125C0033771F00537E9F08C
:1024400020C0C114D10429F0F6016082C6010196B2
:102450006C019A94992059F0C70188D23C0197FDEC
:1024600006C068D2892B69F3B701C301F5D2C11444
:10247000D104A1F0F601108211C0106203C01061F6
:1024800001C01064212FA601692DC70195DE8111BD
:1024900005C0F7018381807329F406C010FD23CFA6
:1024A000839421CF882019F0882D90E002C08FEF0F
:1024B0009FEF2196E0E125C25058BB27AA270ED0F6
:1024C0000DC1FED030F003D120F031F49F3F11F464
:1024D0001EF4F3C00EF4E095E7FBE9C0E92F0FD13D
:1024E00080F3BA17620773078407950718F071F431
:1024F0009EF527C10EF4E0950B2EBA2FA02D0B01EF
:10250000B90190010C01CA01A0011124FF27591B38
:1025100099F0593F50F4503E68F11A16F040A22F3E
:10252000232F342F4427585FF3CF469537952795AF
:10253000A795F0405395C9F77EF41F16BA0B620BAE
:10254000730B840BBAF09150A1F0FF0FBB1F661FF5
:10255000771F881FC2F70EC0BA0F621F731F841F38
:1025600048F4879577956795B795F7959E3F08F05E
:10257000B3CF9395880F08F09927EE0F979587951D
:10258000089571D008F481E0089504D06894B111E1
:10259000D9C00895BCD088F09F5790F0B92F9927E3
:1025A000B751A0F0D1F0660F771F881F991F1AF05E
:1025B000BA95C9F712C0B13081F0C3D0B1E0089527
:1025C000C0C0672F782F8827B85F39F0B93FCCF3A8
:1025D000869577956795B395D9F73EF49095809554
:1025E000709561957F4F8F4F9F4F0895E89409C074
:1025F00097FB3EF490958095709561957F4F8F4F36
:102600009F4F9923A9F0F92F96E9BB279395F6954B
:10261000879577956795B795F111F8CFFAF4BB0FC9
:1026200011F460FF1BC06F5F7F4F8F4F9F4F16C02D
:10263000882311F096E911C0772321F09EE8872FB7
:10264000762F05C0662371F096E8862F70E060E073
:102650002AF09A95660F771F881FDAF7880F9695EC
:10266000879597F90895990F0008550FAA0BE0E890
:10267000FEEF16161706E807F907C0F01216130644
:10268000E407F50798F0621B730B840B950B39F484
:102690000A2661F0232B242B252B21F408950A26EA
:1026A00009F4A140A6958FEF811D811D089597F92A
:1026B0009F6780E870E060E008959FEF80EC0895E8
:1026C00000240A9416161706180609060895002411
:1026D0000A9412161306140605060895092E03948B
:1026E000000C11F4882352F0BB0F40F4BF2B11F4FF
:1026F00060FF04C06F5F7F4F8F4F9F4F089557FD5E
:102700009058440F551F59F05F3F71F04795880F5F
:1027100097FB991F61F09F3F79F0879508951216F6
:1027200013061406551FF2CF4695F1DF08C01616A2
:1027300017061806991FF1CF869571056105089453
:102740000895E894BB2766277727CB0197F908956A
:102750000BD0C4CFB5DF28F0BADF18F0952309F00D
:10276000A6CFABCF1124EECFCADFA0F3959FD1F354
:10277000950F50E0551F629FF001729FBB27F00D2F
:10278000B11D639FAA27F00DB11DAA1F649F662784
:10279000B00DA11D661F829F2227B00DA11D621FD3
:1027A000739FB00DA11D621F839FA00D611D221F8D
:1027B000749F3327A00D611D231F849F600D211D71
:1027C000822F762F6A2F11249F5750408AF0E1F014
:1027D00088234AF0EE0FFF1FBB1F661F771F881F5D
:1027E00091505040A9F79E3F510570F060CFAACF9D
:1027F0005F3FECF3983EDCF3869577956795B79548
:10280000F795E7959F5FC1F7FE2B880F911D969571
:10281000879597F90895AA1BBB1B51E107C0AA1F12
:10282000BB1FA617B70710F0A61BB70B881F991F71
:102830005A95A9F780959095BC01CD010895A1E224
:102840001A2EAA1BBB1BFD010DC0AA1FBB1FEE1F2A
:10285000FF1FA217B307E407F50720F0A21BB30B75
:10286000E40BF50B661F771F881F991F1A9469F7F1
:1028700060957095809590959B01AC01BD01CF014D
:102880000895052E97FB16F400940FD057FD05D040
:10289000D6DF07FC02D046F408C05095409530952D
:1028A00021953F4F4F4F5F4F0895909580957095BC
:1028B00061957F4F8F4F9F4F0895EE0FFF1F05903B
:1028C000F491E02D09942F923F924F925F926F9274
:1028D0007F928F929F92AF92BF92CF92DF92EF92B0
:1028E000FF920F931F93CF93DF93CDB7DEB7CA1B31
:1028F000DB0B0FB6F894DEBF0FBECDBF09942A885C
:10290000398848885F846E847D848C849B84AA8403
:10291000B984C884DF80EE80FD800C811B81AA8190
:10292000B981CE0FD11D0FB6F894DEBF0FBECDBF5B
:10293000ED010895911107C1803219F08950855039
:10294000D0F70895FC010590061621F00020D9F774
:10295000C00108953197CF010895FB01DC0102C049
:1029600001900D9241505040D8F70895CF93DF93D6
:10297000EC012B8120FF33C026FF0AC02F7B2B8365
:102980008E819F8101969F838E838A8190E029C0EA
:1029900022FF0FC0E881F9818081082E000C990B7D
:1029A000009719F420622B831AC03196F983E883CB
:1029B0000EC0EA85FB85099597FF09C02B8101961A
:1029C00011F080E201C080E1822B8B8308C02E8150
:1029D0003F812F5F3F4F3F832E83992702C08FEFA8
:1029E0009FEFDF91CF9108950F931F93CF93DF93C4
:1029F000FB01238121FD03C08FEF9FEF28C022FF41
:102A000016C046815781248135814217530744F40B
:102A1000A081B1819D012F5F3F4F318320838C9333
:102A2000268137812F5F3F4F3783268310C0EB010C
:102A3000092F182F0084F185E02D0995892BE1F6E7
:102A40008E819F8101969F838E83812F902FDF91AE
:102A5000CF911F910F910895FB01238120FF12C098
:102A600026FD10C08F3F3FEF930761F082832F7DDB
:102A700020642383268137812150310937832683BF
:102A8000992708958FEF9FEF0895FA01AA2728301C
:102A900051F1203181F1E8946F936E7F6E5F7F4F2B
:102AA0008F4F9F4FAF4FB1E03ED0B4E03CD0670FA7
:102AB000781F891F9A1FA11D680F791F8A1F911DFA
:102AC000A11D6A0F711D811D911DA11D20D009F44A
:102AD00068943F912AE0269F11243019305D31938C
:102AE000DEF6CF010895462F4770405D4193B3E075
:102AF0000FD0C9F7F6CF462F4F70405D4A3318F01C
:102B0000495D31FD4052419302D0A9F7EACFB4E0CC
:102B1000A6959795879577956795BA95C9F7009784
:102B20006105710508959B01AC010A2E0694579525
:102B3000479537952795BA95C9F7620F731F841F7C
:102B4000951FA01D0895992788270895F894FFCF11
:102B5000000100FD0E0769646C650006019B02041C
:102B60000301CD0000006E6F6E616D65006D6169DF
:102B70006E0016002802021C040507090B000D0E4A
:102B800000000000007A0874088608800884087E27
:102B900008780872086F08100003FF20FF00FF028A
:102BA000286E756C6C29000A00000064000000E8C3
:102BB00003000010270000A086010040420F0080A3
:102BC00096980000E1F50500CA9A3B426C696E6B6D
:0C2BD000657200252E326620560A0D00AA
:00000001FF
