:1000000044C000005EC000005CC000005AC0000098
:1000100058C0000056C0000054C0000052C000008C
:1000200050C000004EC000004CC00000E6C40000FC
:1000300018C50000AEC4000077C4000042C0000034
:1000400040C000003EC000003CC000003AC00000BC
:1000500038C0000036C0000034C0000032C00000CC
:1000600030C000002EC0000045464765666700208E
:100070002B2D2E3031323334353637383968006322
:1000800064696E6F70737578580011241FBECFEFCE
:10009000D8E0DEBFCDBF11E0A0E0B1E0E6E3F6E1DD
:1000A00002C005900D92AC35B107D9F723E0ACE55D
:1000B000B1E001C01D92A331B207E1F76CD60C94F8
:1000C000190B9ECFFFCF22D15CD04FD385D340E810
:1000D0006AE271E08BEE92E030D2FC019093E00294
:1000E0008093DF0291E0958790930B03789488E1E9
:1000F00091E0A6C20F931F93CF93DF938091E70205
:100100009091E80201969093E8028093E702A09113
:10011000E102B091E20282E0A13EB80769F11496D3
:100120008D919C911597019715969C938E9314979A
:10013000892B11F501EE12E01696ED91FC911797BF
:1001400017961C921E921697CD91DC9111971B83E6
:100150000A83D093E202C093E10218968D919C919C
:1001600019970995A091E102B091E20214968D9140
:100170009C911597892B01F3DF91CF911F910F91DE
:100180000895E4EDF2E081EE92E096878587908B0A
:1001900087878FEF9FEF928B818B148A138A089544
:1001A000CF93DF93DC0119963C932E931897179603
:1001B0005C934E931697E091E102F091E202248164
:1001C00035812617370750F4621B730B0190F081BD
:1001D000E02D2481358126173707B0F31196FC9363
:1001E000EE93C281D3811396DC93CE931297B98399
:1001F000A883B383A28315967C936E93149784810E
:100200009581861B970B958384838FEF9FEF909347
:10021000E6028093E502DF91CF910895CF93DF93BB
:10022000FC01A081B18114962D913C911597848198
:100230009581820F931F15969C938E931497C2817C
:10024000D381B983A883A081B1811396DC93CE9327
:100250001297178216828FEF9FEF9093E60280939A
:10026000E502DF91CF910895CF93DF93DC011D96D6
:100270008C911D97843099F170F5882349F1833072
:1002800031F45096ED91FC915197118210828FEFCD
:100290009FEF51969C938E9350971D961C921D979D
:1002A00014962C911497E4EDF2E00190F081E02D8A
:1002B00094819217D0F71196FC93EE93C281D3816B
:1002C0001396DC93CE931297B983A883B383A2834A
:1002D000DF91CF910895853089F08730C1F612966D
:1002E000ED91FC9113978D919C911197918380834F
:1002F000CD91DC911197FB83EA83C9CF5096ED91A4
:10030000FC91519784818F5F8483E9CFE4EDF2E023
:10031000F183E083F383E2831482F087E783F2873B
:10032000E1870895CF93DF93DC011D961C921D9702
:1003300014962C911497E4EDF2E00190F081E02DF9
:1003400094819217D0F71196FC93EE93C281D381DA
:100350001396DC93CE931297B983A883B383A283B9
:10036000CD01DF91CF910895CF93DF93E4EDF2E0DB
:1003700063857485DB011D968C9380819181EC01EE
:10038000A881B981B183A0831396FC93EE93129751
:100390009487838721E02D872CD2DF91CF91089518
:1003A0001F93CF93DF93CDB7DEB72A970FB6F8949C
:1003B000DEBF0FBECDBF182F6F3F8FEF780711F153
:1003C0002091DF023091E00244E351E0CE0101963A
:1003D000E7DE812FC9DF8F819885892B19F0CE0147
:1003E00001961CDFE091DF02F091E00280899189A3
:1003F0002A960FB6F894DEBF0FBECDBFDF91CF9126
:100400001F910895812FB0DFEDCFCF93DF93DC01F3
:10041000C091DF02D091E00251967C936E93509789
:1004200014962C9114978C818217D8F01D961C92EB
:100430001D97E4EDF2E00190F081E02D9481921798
:10044000D0F71196FC93EE93C281D3811396DC937F
:10045000CE931297B983A883B383A283DF91CF9100
:1004600008951D86E4EDF2E00190F081E02D948185
:100470009817D0F7CD01F983E883A281B381BB83BC
:10048000AA83CD93DC93D383C2839093E0028093BD
:10049000DF0221E0FC012587BE01ABD1DF91CF91C6
:1004A0000895A091D402B091D502E091DF02F091BD
:1004B000E00281E014962C919481921708F080E07C
:1004C0000895CF93DF93A091DF02B091E0024091B5
:1004D000D4025091D502EA01E881F981F093D50266
:1004E000E093D40284ED92E0938382835093E00200
:1004F0004093DF0281E08D871D961C921D97149614
:100500002C91149703C00190F081E02D948129175C
:10051000D0F31196FC93EE938281938113969C9372
:100520008E931297EC01B983A883B383A283BD0194
:10053000CA015FD1DF91CF910895CF93DF93FC0182
:10054000448382E085871686438F128E118E108E2B
:1005500081E0878774876387A4EDB2E0B087A783C3
:100560001996CD91DC911A97D287C187F887EF83CE
:100570001A96FC93EE931997CF014296938B828B38
:100580000296958B848B978B868BCF01DF91CF91D1
:100590000895CF93DF93EC014C815D81FA017C9744
:1005A000CA01C197968385832F81DC0152962C93D3
:1005B0005297288551962C935197298550962C93C4
:1005C00050972A851F962C931F9728E234E0539664
:1005D0003C93539754962C938E8128813981848340
:1005E00092E095871686838F128E118E108E81E091
:1005F000878734872387C4EDD2E0D087C783898576
:100600009A8592878187DC011896FC93EE93179761
:10061000FA87E987EA012A97D983C883DA0118970C
:100620000B2E11960C921197AC930A2E1B2E13963B
:100630001C920E9211241297CF01DF91CF91089551
:10064000CF93DF93F894A5DFEC0160E070E0DDDE8E
:100650007894CE01DF91CF9108950F931F93CF939C
:10066000DF93F8946C517109EC01C60FD71FFE019E
:100670007597FE83ED83228B318B008B178788E281
:1006800094E0938B848B4C8382E08D871E864B8F06
:100690001A8E198E188E81E08F8783E291E09C87F5
:1006A0008B87E4EDF2E0F887EF83A185B285BA8706
:1006B000A9871896DC93CE931797D287C187CE016E
:1006C00042969B8B8A8B02969D8B8C8B9F8B8E8BFD
:1006D00060E070E0CE0199DE7894CE01DF91CF9199
:1006E0001F910F9108950F931F93CF93DF93C091A4
:1006F000DF02D091E002998B888B8E010E5E1F4F36
:100700008A899B890817190759F0FC0120813181DA
:100710003B8B2A8B07DE8A899B8980179107A9F773
:100720008F8581110CC0E985FA858F819885908726
:100730008783AF81B8851A96FC93EE9319978FE063
:10074000DF91CF911F910F910FCEF894CCCFF894F9
:10075000BC0188E025DE78940895FC0191838083B4
:1007600093838283158214820895E7E0F3E08CE599
:1007700091E0918380838CED91E09383828308954F
:10078000F894FB01319771956195710920910703E8
:1007900030910803420F531F4E0F5F1F462357230C
:1007A0008E0F9F1F68237923CA01860F971F6091C0
:1007B000090370910A036817790750F082179307AD
:1007C00038F09093080380930703CA017894089542
:1007D00080E090E078940895ECEDF1E080EC93E017
:1007E00091838083138212821582148282EE91E0BB
:1007F000B4CF2F923F924F925F926F927F928F92DF
:100800009F92AF92BF92CF92DF92EF92FF920F939F
:100810001F93CF93DF93FB010DB605820EB60682C0
:10082000FC0105800DBE06800EBEDF91CF911F91A9
:100830000F91FF90EF90DF90CF90BF90AF909F907F
:100840008F907F906F905F904F903F902F90089582
:100850007894C201F101099578CF33D086E591E013
:1008600031D003D08CD200C08AC02FC1FC0181E0FE
:10087000808312821182158216820895CF93DF93AE
:10088000EC01F8947A836983FB01848195819C83D0
:100890008B83CE0121D11D8282E088837894DF9101
:1008A000CF910895F89421E030E0062E01C0220F88
:1008B0000A94EAF7FC013581232B258393D17894A0
:1008C00008950895FC01808185B9818184B9828170
:1008D00088B9838187B984818BB985818AB9089564
:1008E000FC014230C9F098F04530B1F0463021F4B7
:1008F0008181682B618308954330E9F78181962FC8
:100900009095892381838281682B62830895442393
:1009100019F0413099F30895818160958623818390
:1009200082816823628308951F920F920FB60F92FF
:1009300011242F933F934F935F936F937F938F93E4
:100940009F93AF93BF93EF93FF9381E080930B034B
:10095000D1DB10920B03A5DD8111B3DDFF91EF9187
:10096000BF91AF919F918F917F916F915F914F91C7
:100970003F912F910F900FBE0F901F90189582E01E
:1009800084BD85BD9FE797BD16BC85BB80936E0077
:1009900008951F920F920FB60F9211242F933F9339
:1009A0004F935F936F937F938F939F93AF93BF9377
:1009B000EF93FF9381E080930B03E0910D03F0919F
:1009C0000E030680F781E02D8CE093E009951092EC
:1009D0000B0367DD811175DDFF91EF91BF91AF9141
:1009E0009F918F917F916F915F914F913F912F9147
:1009F0000F900FBE0F901F9018951F920F920FB679
:100A00000F9211242F933F934F935F936F937F9394
:100A10008F939F93AF93BF93EF93FF9381E0809366
:100A20000B03E0910D03F0910E030184F285E02D9C
:100A30008CE093E0099510920B0333DD811141DDC9
:100A4000FF91EF91BF91AF919F918F917F916F91A6
:100A50005F914F913F912F910F900FBE0F901F907C
:100A600018951F920F920FB60F9211242F933F9358
:100A70004F935F936F937F938F939F93AF93BF93A6
:100A8000EF93FF9381E080930B03E0910D03F091CE
:100A90000E030484F585E02D8CE093E00995109217
:100AA0000B03FFDC81110DDDFF91EF91BF91AF9141
:100AB0009F918F917F916F915F914F913F912F9176
:100AC0000F900FBE0F901F9018958CE093E0CEDE34
:100AD00082E08093120308958F929F92AF92BF920B
:100AE000CF92DF92EF92FF92CF93DF9300D000D0AE
:100AF0001F92CDB7DEB79C01DC018C91813081F073
:100B00000F900F900F900F900F90DF91CF91FF906B
:100B1000EF90DF90CF90BF90AF909F908F9008950F
:100B200085E0EEE0F1E0DE01119601900D928A95EC
:100B3000E1F7D9011196ED91FC9112978080918097
:100B4000A280B380FE01319690E0C12C84E2D82EC1
:100B500084EFE82EF12CB701A601019004C0769530
:100B60006795579547950A94D2F79F5F48155905A1
:100B70006A057B0591F1953071F79DE141E050E008
:100B8000B3E02C303B0759F1F90163817481709314
:100B900087006093860086E1849FF001859FF00DB9
:100BA0001124E05CFE4FA081B18182E08C93A28190
:100BB000B3819C93D90111968D919C911297DC0180
:100BC00016968D919C911797892B09F499CF0288DD
:100BD000F389E02D81E0808393CF9861CFCF40E00F
:100BE00050E0D2CFAF92BF92CF92DF92EF92FF92BE
:100BF0000F931F93CF93DF93EC01262F30E0A98151
:100C0000BA81F901EE0FFF1FCF01820F931FA80FCA
:100C1000B91F18967C9101E010E083E0CC30D80732
:100C200009F4AAC086E1809FD001819FB00D1124F4
:100C3000A05CBE4FED90FC90D7018C91962F9195C2
:100C4000990F995FA1E0B0E06D0101C0CC0C9A95BD
:100C5000EAF793E0A92EB12CA21AB30AAA0C01C09C
:100C6000AA0FAA94EAF7BA2EBC289B2D9095892347
:100C7000D7018C93713009F476C0723009F477C0D3
:100C8000613009F45FC0623009F44BC086E1809F97
:100C9000D001819FB00D1124A05CBE4F14968D91A0
:100CA0009C91159716966D917C911797DC015C933A
:100CB000DB014C9386E1809FD001819FB00D112410
:100CC0008D01005C1E4FD80150968D919C915197DB
:100CD000B9016F5F7F4F41E050E001C0440F6A955A
:100CE000EAF7DC014C9389819A812E0F3F1FFC01AA
:100CF000E20FF31F81859285892B41F0D80152962E
:100D0000ED91FC9153978081482B4083DF91CF91E7
:100D10001F910F91FF90EF90DF90CF90BF90AF9019
:100D2000089586E1809FD001819FB00D1124A05CC1
:100D3000BE4F1C968D919C911D971E966D917C9136
:100D40001F97B4CF86E1809FD001819FB00D112401
:100D5000A05CBE4F18968D919C9119971A966D9133
:100D60007C911B97A3CF8C91C82ACC9289CFD701B5
:100D70008C918B298C9384CF00E010E053CF10929C
:100D800069001DBA0895C0E285B18C2785B98BE151
:100D900096E0DDDCF9CF61DD96D960E071E08CE0B2
:100DA00093E06CDD46E064E083E290E099DD2D980D
:100DB00000E010E023EC36E041E861E870E08AEE04
:100DC00091E04BDC46E050E061E08CE093E06ADDCE
:100DD000CCE0D0E006E010E08DE990E0B8DCAE01B8
:100DE00061E08CE093E05EDDC8018C0F9D1F9C01EB
:100DF0002A503109253F334010F4EC01EDCF119515
:100E000001951109E9CFACE0B0E0E8E0F7E0DBC222
:100E10006C015B017A01FC0117821682838181FFDC
:100E200004C1CE0101964C01F6010381F50103FDD9
:100E3000159103FF11915F01112309F4F2C01532DE
:100E400049F403FD159103FF11915F01153211F073
:100E500020E019C0B601812F90E039D3370173012A
:100E6000E3CF112309F4DDC0612F70E08FE690E03D
:100E70002C87E4D22C85892B49F0F50103FD1591CF
:100E800003FF11915F0127FFECCF09C0133229F056
:100E90001C3609F0CDC02068F0CF20E1EECF022F44
:100EA000112309F4BEC0612F70E088E690E02C8722
:100EB000C5D22C85892B41F03701F4E06F0E711CEF
:100EC000B6018FE390E011C0133639F0133779F093
:100ED000133509F5022F01600AC0370182E0680E60
:100EE000711CB601F70180819181F1D2B8CF370131
:100EF000F2E06F0E711CF701E080F180F70100FD58
:100F0000859100FF81917F01882309F4A8CFB60164
:100F100090E0DDD2F3CF143611F0193629F5370100
:100F200027FF09C0F4E06F0E711CF7016081718129
:100F3000828193810AC0F2E06F0E711CF70160811B
:100F40007181072E000C880B990B022F0F7E97FFE3
:100F500008C090958095709561957F4F8F4F9F4FFA
:100F600000642AE030E033C0103799F040F41835BF
:100F7000B1F01F3609F055C028E030E014C0153735
:100F800019F0183741F04DC0022F0F7E2AE030E0F3
:100F90000AC0022F0061046220E130E004C0022F89
:100FA000046020E132E0370107FF09C0F4E06F0E72
:100FB000711CF701608171818281938108C0F2E028
:100FC0006F0E711CF7016081718180E090E0A401D7
:100FD000CFD2182F181906FF04C0B6018DE290E099
:100FE00076D204FF13C0FE01E10FF11D8081803332
:100FF00069F0B60180E390E06AD202FF07C0007298
:10100000802F90E0B601885A9F4F61D21150F401B1
:10101000E10FF11D8081B60190E059D21111F6CF98
:101020001ECFF6018681978105C08FEF9FEF02C02A
:10103000022F39CF2C96EEE0E2C120FD09C0FC0161
:1010400023FD05C022FF02C0738362835183408366
:10105000089544FD10C046FD10C0DB01FC01AA0F3D
:10106000BB1FEE1FFF1F1094D1F76A0F7B1F8E1F4F
:101070009F1F31E003C033E001C034E0660F771FEB
:10108000881F991F3150D1F7620F711D811D911D6D
:1010900008950F931F93CF93DF938C01C801D9D18B
:1010A000EC0197FD06C0C2D1892BC1F7B801CE0172
:1010B00046D2CE01DF91CF911F910F910895A1E00B
:1010C000B0E0E4E6F8E081C18C01C62E7A01298304
:1010D000C0D1AC01552729814B32510521F04D3249
:1010E000510561F42068CA94C11002C080E06FC04D
:1010F000C8012983AED1298197FDF8CF322F3D7FDA
:10110000D32E322F307339F5803329F5BB24BA94AE
:10111000BC0C09F449C0C80129839BD1298197FDE2
:1011200043C0382F3F7D383561F48D2D8264D82E31
:10113000CA94CA94CC20C1F1C8018BD197FF0BC0CF
:1011400033C026FF04C02D2D2260D22E03C03D2DBA
:101150003261D32ECB2C812C912C540120ED280F01
:10116000283078F0D4FE03C0B801E9D11AC02A3083
:1011700040F0D6FEF9CF2F7D3FEE320F3630A0F78C
:1011800027504D2DC501B40164DF4B015C018D2D4D
:101190008260D82ECA94CC2051F0C8015AD197FF52
:1011A000DDCFD1FC04C0A2CF812C912C5401D7FEFD
:1011B00008C0B094A09490948094811C911CA11CB0
:1011C000B11C2D2DB501A401C70137DF81E02196A7
:1011D000ECE017C1A1E0B0E0EFEEF8E0F2C07C0176
:1011E0002B015A01FC0117821682812CF7017380B2
:1011F000F20173FC859173FE8191382F2F018823B2
:1012000009F4D5C090E0398311D13981892B19F0C7
:10121000C7013FDFEBCF353241F4F20173FC35916A
:1012200073FE31912F01353259F4C701398311D141
:10123000398197FDBAC03817C9F2B70180D1B7C05C
:101240003A3239F473FC359173FE31912F0111E07C
:1012500001C010E0620160E020ED230F2A3068F445
:10126000126070E080E090E040E2F3DEF60173FC93
:10127000359173FE31916F01EFCF962E032F26012A
:1012800011FF03C0611103C092C099249A943836AB
:1012900019F03C3651F010C0F60173FC059173FE55
:1012A00001912F01083641F418601460F20173FCBB
:1012B000059173FE01912F01002309F478C0602F7E
:1012C00070E08FE790E0BAD0892B09F470C010FD70
:1012D00007C0F501C080D180C50102965C0102C043
:1012E000C12CD12C0E3649F4F7014681578160E0BC
:1012F00070E0212FC601A1DE79CF0336A1F411FDE4
:1013000002C099249394C701A4D097FD4EC0C11484
:10131000D10429F0F6018083C60101966C019A94EC
:101320009110F1CF3EC0C701B4DE97FD3EC00F362D
:1013300049F128F4043621F1093639F125C0033783
:1013400071F00537E9F020C0C114D10429F0F6018D
:101350006082C60101966C019A94992059F0C701E8
:1013600078D03C0197FD06C061D0892B69F3B701A5
:10137000C301E5D0C114D104A1F0F601108211C05F
:10138000106203C0106101C01064212FA601692DF5
:10139000C70195DE811105C0F7018381807329F4AF
:1013A00006C010FD23CF839421CF882019F0882D0B
:1013B00090E002C08FEF9FEF2196E0E11EC02F92D8
:1013C0003F924F925F926F927F928F929F92AF92D5
:1013D000BF92CF92DF92EF92FF920F931F93CF9322
:1013E000DF93CDB7DEB7CA1BDB0B0FB6F894DEBFB9
:1013F0000FBECDBF09942A88398848885F846E84DF
:101400007D848C849B84AA84B984C884DF80EE8028
:10141000FD800C811B81AA81B981CE0FD11D0FB631
:10142000F894DEBF0FBECDBFED0108959111FEC04F
:10143000803219F089508550D0F70895FC0105904D
:10144000061621F00020D9F7C00108953197CF0189
:101450000895CF93DF93EC012B8120FF33C026FF4B
:101460000AC02F7B2B838E819F8101969F838E8361
:101470008A8190E029C022FF0FC0E881F981808134
:10148000082E000C990B009719F420622B831AC0C8
:101490003196F983E8830EC0EA85FB85099597FFAD
:1014A00009C02B81019611F080E201C080E1822BFE
:1014B0008B8308C02E813F812F5F3F4F3F832E8358
:1014C000992702C08FEF9FEFDF91CF9108950F937F
:1014D0001F93CF93DF93FB01238121FD03C08FEF87
:1014E0009FEF28C022FF16C0468157812481358195
:1014F0004217530744F4A081B1819D012F5F3F4FF4
:10150000318320838C93268137812F5F3F4F378330
:10151000268310C0EB01092F182F0084F185E02DE0
:101520000995892BE1F68E819F8101969F838E8399
:10153000812F902FDF91CF911F910F910895FB0183
:10154000238120FF12C026FD10C08F3F3FEF93077D
:1015500061F082832F7D206423832681378121508F
:10156000310937832683992708958FEF9FEF0895D8
:10157000FA01AA27283051F1203181F1E8946F93C4
:101580006E7F6E5F7F4F8F4F9F4FAF4FB1E03ED06A
:10159000B4E03CD0670F781F891F9A1FA11D680F08
:1015A000791F8A1F911DA11D6A0F711D811D911D3B
:1015B000A11D20D009F468943F912AE0269F1124B0
:1015C0003019305D3193DEF6CF010895462F477014
:1015D000405D4193B3E00FD0C9F7F6CF462F4F706F
:1015E000405D4A3318F0495D31FD4052419302D0CD
:1015F000A9F7EACFB4E0A695979587957795679573
:10160000BA95C9F700976105710508959B01AC0172
:101610000A2E06945795479537952795BA95C9F799
:10162000620F731F841F951FA01D08959927882797
:061630000895F894FFCFBD
:10163600093D0000FF030000000000010000000358
:1016460006080A69646C650013016B02D402016224
:101656000000006E6F6E616D65006D61696E00164B
:10166600002802021C040507090B000D0E000000ED
:1016760080008100890088008B008A00000000003D
:0C16860036006F008600FF20FF00FF020E
:00000001FF
