:100000000C9434000C94DF000C9446000C944600D1
:100010000C9446000C9446000C9446000C94460048
:100020000C9446000C9446000C9446000C94460038
:100030000C9446000C9446000C9446000C94460028
:100040000C9446000C9446000C949D000C94B40053
:100050000C9446000C9446000C9446000C94460008
:100060000C9446000C94460011241FBECFEFD8E03C
:10007000DEBFCDBF22E0A0E0B1E001C01D92A639F5
:10008000B207E1F70E940A010C9422010C940000CF
:10009000519A8AB18E6F8AB91092C50080E180931F
:1000A000C40082E08093C00088E98093C10086E0AC
:1000B0008093C2000895E9E6F0E08081816080834A
:1000C000E89A78940895209A219A229A529808954D
:1000D00020E030E02817390749F040EA5FE00000EF
:1000E00041505109E1F72F5F3F4FF4CF0895F89445
:1000F0009091010191110BC08093C6008091C100C5
:1001000080628093C10081E08093010111C0E09181
:10011000020191E09E0F983C08F090E0209193023C
:10012000921741F0F0E0E553FE4F80839093020177
:1001300080E001C081E0789408951F920F920FB67D
:100140000F9211248F938091C600833739F481E098
:1001500085B985E38A95F1F7000015B88F910F9066
:100160000FBE0F901F9018951F920F920FB60F920F
:1001700011242F933F934F935F936F937F938F93AC
:100180009F93AF93BF93EF93FF93F8942A9A1092A3
:1001900095028AE090E00E9468007894FF91EF91C8
:1001A000BF91AF919F918F917F916F915F914F918F
:1001B0003F912F910F900FBE0F901F9018951F9297
:1001C0000F920FB60F9211242F933F934F935F938B
:1001D0006F937F938F939F93AF93BF93EF93FF930F
:1001E000F89481E0809395028AE090E00E94680094
:1001F0007894FF91EF91BF91AF919F918F917F91F3
:100200006F915F914F913F912F910F900FBE0F9083
:100210001F9018950E9448000E945B000E94630096
:100220002FEF81EE94E0215080409040E1F700C034
:1002300000002A9880919502882391F388E40E9417
:080240007700EECFF894FFCF28
:00000001FF
