:100000000C9434000C94AB000C9446000C94460005
:100010000C9446000C9446000C9446000C94460048
:100020000C9446000C9446000C9446000C94460038
:100030000C9446000C9446000C9446000C94460028
:100040000C9446000C9446000C9496000C944600C8
:100050000C9446000C9446000C9446000C94460008
:100060000C9446000C94460011241FBECFEFD8E03C
:10007000DEBFCDBF22E0A0E0B1E001C01D92A639F5
:10008000B207E1F70E94D4000C94D9000C94000050
:1000900082E08AB99EEF9AB91092C50090E19093E0
:1000A000C4008093C00088E98093C10086E08093FB
:1000B000C200089581E084B98FED84B915B87894B1
:1000C000089520E030E02817390749F040EA5FE062
:1000D000000041505109E1F72F5F3F4FF4CF0895E1
:1000E000F8949091020191110BC08093C600809109
:1000F000C10080628093C10081E08093020111C041
:10010000E091030191E09E0F983C08F090E020916F
:100110009402921741F0F0E0E453FE4F80839093F5
:10012000030180E001C081E0789408951F920F924E
:100130000FB60F9211248F938091C600833719F464
:1001400081E085B902C0109200018F910F900FBE1F
:100150000F901F9018951F920F920FB60F921124B7
:100160002F933F934F935F936F937F938F939F93BF
:10017000AF93BF93EF93FF9381E08093000184E6F8
:1001800090E00E946100FF91EF91BF91AF919F912C
:100190008F917F916F915F914F913F912F910F9030
:1001A0000FBE0F901F9018950E9448000E945A00A1
:0601B000FFCFF894FFCF21
:00000001FF
