:100000000C9434000C94DB000C9446000C944600D5
:100010000C9446000C9446000C9446000C94460048
:100020000C9446000C9446000C9446000C94460038
:100030000C9446000C9446000C9446000C94460028
:100040000C9446000C9446000C949B000C94B10058
:100050000C9446000C9446000C9446000C94460008
:100060000C9446000C94460011241FBECFEFD8E03C
:10007000DEBFCDBF21E0A0E0B1E001C01D92AC3CED
:10008000B207E1F70E9406010C941D010C940000D8
:10009000519A8AB18E6F8AB91092C50080E180931F
:1000A000C40082E08093C00088E98093C10086E0AC
:1000B0008093C2000895E9E6F0E08081816080834A
:1000C000E89A78940895209A5298089520E030E0B4
:1000D0002817390749F040EA5FE000004150510914
:1000E000E1F72F5F3F4FF4CF0895F894909100010E
:1000F00091110BC08093C6008091C10080628093F3
:10010000C10081E08093000111C0E091020191E003
:100110009E0F983C08F090E02091CB01921741F09F
:10012000F0E0ED5FFE4F80839093020180E001C01C
:1001300081E0789408951F920F920FB60F921124C8
:100140008F938091C600833731F4289A85E38A958E
:10015000F1F7000028988F910F900FBE0F901F901D
:1001600018951F920F920FB60F9211242F933F9361
:100170004F935F936F937F938F939F93AF93BF93AF
:10018000EF93FF93F894109201018AE090E00E94AF
:1001900066007894FF91EF91BF91AF919F918F91FD
:1001A0007F916F915F914F913F912F910F900FBE73
:1001B0000F901F9018951F920F920FB60F92112457
:1001C0002F933F934F935F936F937F938F939F935F
:1001D000AF93BF93EF93FF93F89481E08093010175
:1001E0008AE090E00E9466007894FF91EF91BF91C1
:1001F000AF919F918F917F916F915F914F913F91BF
:100200002F910F900FBE0F901F9018950E944800DD
:100210000E945B000E9463002FEF81EE94E021506A
:1002200080409040E1F700C00000809101018823E8
:0E02300099F388E40E947500EFCFF894FFCF99
:00000001FF
