:100000000C9434000C9446000C9446000C9446006A
:100010000C9446000C9446000C9446000C94460048
:100020000C9446000C9446000C9446000C94460038
:100030000C9446000C9446000C9446000C94460028
:100040000C9446000C9446000C94EA000C949E001C
:100050000C9446000C944C010C9446000C94460001
:100060000C9446000C94460011241FBECFEFD8E03C
:10007000DEBFCDBF21E0A0E0B1E001C01D92A13301
:10008000B207E1F70E9468010C94A1010C940000F2
:100090005098519A1092C50080E18093C40082E08C
:1000A0008093C00088E98093C10086E08093C200FD
:1000B000089584E08093890082EE8093880083E035
:1000C000809380008CE18093810008954098389857
:1000D00080E480937C0086E080937B0081E08093C5
:1000E0007E008FEE80937A000895259A7894089583
:1000F000F8949091010191110BC08093C6008091FA
:10010000C10080628093C10081E08093010111C031
:10011000E091020191E09E0F943108F090E020916F
:100120002B01921741F0F0E0E95EFE4F808390933F
:10013000020180E001C081E0789408951F920F923F
:100140000FB60F9211248F93EF93FF93E0912B0141
:10015000809102018E1308C08091C1008F7D809331
:10016000C1001092010110C0F0E0E95EFE4F8081F5
:100170008093C60080912B018F5F843118F48093A7
:100180002B0102C010922B01FF91EF918F910F90E4
:100190000FBE0F901F901895F894809100019091D8
:1001A0003001981779F0E82FF0E0ED5FFE4F2081E5
:1001B0008F5F843118F48093000102C01092000117
:1001C00080E002C020E081E0789490E0982F8827BA
:1001D000822B08951F920F920FB60F9211248F93C6
:1001E0009F93EF93FF93E091300181E08E0F843174
:1001F00008F080E09091C600F0E0ED5FFE4F908344
:100200008093300190910001891308C08F5F843181
:1002100019F08093000102C01092000181E08093E8
:100220002F01FF91EF919F918F910F900FBE0F9033
:100230001F901895AC0123E0569547952A95E1F754
:100240009C0164E0369527956A95E1F7420F531FAC
:100250009A0174E0369527957A95E1F7420F531F7E
:10026000252F3327420F531F65E0649F9001659F40
:10027000300D1124BC01621B730B9B016DE0629F6A
:10028000C001639F900D1124F6E096958795FA952D
:10029000E1F7840F951F08951F920F920FB60F92EA
:1002A00011242F933F938F9381E080932C01209111
:1002B00078003091790030932E0120932D0186BB78
:1002C0008F913F912F910F900FBE0F901F90189517
:1002D0000E9459000E9448000E9466000E9475001A
:1002E00020E030E0C0E0D0E080912C018823E1F3F1
:1002F00010922C0180912D0190912E018C1B9D0B51
:10030000C0912D01D0912E0197FF03C09195819549
:100310009109459734F4293C310518F42F5F3F4F7C
:10032000E3CF80912D0190912E010E947800809161
:100330002D0190912E01892F0E94780020E030E05D
:06034000D3CFF894FFCFBB
:00000001FF
