:100000000C9434000C9446000C9446000C9446006A
:100010000C9446000C9446000C9446000C94460048
:100020000C9446000C9446000C9446000C94460038
:100030000C9446000C9446000C9446000C94460028
:100040000C9446000C9446000C9446000C948800D6
:100050000C9446000C9446000C9446000C94460008
:100060000C9446000C94460011241FBECFEFD8E03C
:10007000DEBFCDBF21E0A0E0B1E001C01D92AB3CEE
:10008000B207E1F70E94B6000C94C2000C94000085
:100090005098519A1092C5008FEC8093C400089537
:1000A000259A7894089520E030E02817390749F020
:1000B00040EA5FE0000041505109E1F72F5F3F4FF8
:1000C000F4CF0895F8949091000191110BC08093A2
:1000D000C6008091C10080628093C10081E080935E
:1000E000000111C0E091010191E09E0F983C08F0E1
:1000F00090E02091CA01921741F0F0E0EE5FFE4FD0
:1001000080839093010180E001C081E0789408959C
:100110001F920F920FB60F9211248F93EF93FF93BC
:10012000E091CA01809101018E1308C08091C10045
:100130008F7D8093C1001092000110C0F0E0EE5F4F
:10014000FE4F80818093C6008091CA018F5F883CFA
:1001500018F48093CA0102C01092CA01FF91EF9176
:100160008F910F900FBE0F901F9018950E9448001E
:100170000E94500082E00E9462008AEF90E00E949C
:080180005300F8CFF894FFCF03
:00000001FF
